:020000040800F2
:1000000000280020A5110008BD0F0008C30F00083C
:10001000C90F0008CF0F0008D50F0008000000002E
:10002000000000000000000000000000DB0F0008DE
:10003000E70F000800000000F30F0008FF0F0008A2
:10004000ED110008ED110008ED110008ED11000898
:10005000ED110008ED110008ED110008ED11000888
:10006000ED110008ED110008ED110008ED11000878
:10007000ED110008ED110008ED110008ED11000868
:10008000ED110008ED110008ED110008ED11000858
:10009000ED110008ED110008ED110008ED11000848
:1000A000ED110008ED110008ED110008ED11000838
:1000B0000D100008ED11000800000000ED1100080F
:1000C000ED1100080000000000000000ED11000824
:1000D00000000000ED110008ED1100080000000014
:1000E000ED110008ED110008ED11000800000000FE
:1000F0000000000000000000000000000000000000
:0C01000000000000000000005FF808F1A3
:10010C0010B5054C237833B9044B13B10448AFF345
:10011C0000800123237010BD2C0000200000000083
:10012C002428000808B5034B1BB103490348AFF35F
:10013C00008008BD000000003000002024280008CA
:10014C0080B483B000AF7860094A7B6852F82330E2
:10015C00012B06D1064A7B68002142F823100123AB
:10016C0000E0002318460C37BD4680BC704700BF2A
:10017C004800002080B582B000AF00237B607CE09B
:10018C00424A7B6852F8232041497B6841F823207E
:10019C00404A7B6852F823203C497B6841F8232075
:1001AC003D4A7B6852F823203C497B6831F8133078
:1001BC001946104601F002FB03461946354A7B6886
:1001CC0042F82310324A7B6852F823202F497B686F
:1001DC0051F823309A424DD12C4A7B6852F8232097
:1001EC002C497B6851F823309A4243D12C4A7B68C6
:1001FC0052F8232027497B6851F823309A4219D0B2
:10020C00244A7B6852F8232025497B6841F8232037
:10021C00204A7B6852F82330002B2BD1214A7B6873
:10022C00012142F82310204A7B684FF4967142F862
:10023C0023101FE01C4A7B6852F823305A1E1A49BF
:10024C007B6841F82320184A7B6852F82330002B36
:10025C0010DC154A7B684FF4967142F82310104A53
:10026C007B6852F82330002B04D10E4A7B680121A5
:10027C0042F823107B6801337B607B68022B7FF78D
:10028C007FAF00BF00BF0837BD4680BD60000020B7
:10029C00540000206C000020000000200C00002006
:1002AC0078000020480000208400002080B500AFBA
:1002BC00D14B1B68013B042B00F2A88101A252F820
:1002CC0023F000BFE5020008970300080D040008A6
:1002DC00CF04000845050008002000F0E5FE0020D2
:1002EC0000F00AFF002000F02FFFC34B02221A601F
:1002FC00C24B1B684FF47A7202FB03F319460120C0
:10030C0000F09CFDBE4B1B684FF47A7202FB03F3AA
:10031C001946022000F092FDB84B1B68B94A82FBCB
:10032C0003129210DB17D31A1946002000F02CFC94
:10033C00B24B1A68B34B83FB02139910D317C91A2B
:10034C000B469B000B445B00D11A012000F01CFCF7
:10035C00AB4B1B68AB4A82FB03129210DB17D31A10
:10036C001946022000F010FCA54B1A68A54B83FB24
:10037C0002139910D317C91A0B469B000B445B0050
:10038C00D11A032000F000FC49E1012201210020D8
:10039C0000F046FE00220121012000F063FE022045
:1003AC0000F06CFD0346012B40F03281924B03228E
:1003BC001A60954B1B684FF47A7202FB03F31946D3
:1003CC00022000F03BFD904B1B688E4A82FB03120F
:1003DC009210DB17D31A1946022000F0D5FB8A4B7A
:1003EC001A68884B83FB02139910D317C91A0B4652
:1003FC009B000B445B00D11A032000F0C5FB07E106
:10040C0001220121002000F00BFE0122002101201D
:10041C0000F028FE022000F031FD0346012B40F0D5
:10042C00F980754B04221A60754B1B684FF47A7275
:10043C0002FB03F31946012000F000FD6F4B1B6813
:10044C004FF47A7202FB03F31946022000F0F6FC1B
:10045C006B4B1B686B4A82FB03129210DB17D31A8F
:10046C001946002000F090FB654B1A68654B83FB26
:10047C0002139910D317C91A0B469B000B445B004F
:10048C00D11A012000F080FB5C4B1B685D4A82FB9B
:10049C0003129210DB17D31A1946022000F074FBDA
:1004AC00564B1A68574B83FB02139910D317C91A72
:1004BC000B469B000B445B00D11A032000F064FB3D
:1004CC00A8E000220121012000F0AAFD0122012157
:1004DC00002000F0C7FD012000F0D0FC0346012BEA
:1004EC0040F09A80444B05221A60474B1B684FF42E
:1004FC007A7202FB03F31946012000F09FFC424B79
:10050C001B68404A82FB03129210DB17D31A194660
:10051C00002000F039FB3C4B1A683A4B83FB02136A
:10052C009910D317C91A0B469B000B445B00D11AC8
:10053C00012000F029FB6FE001220021012000F0D6
:10054C006FFD01220121002000F08CFD012000F044
:10055C0095FC0346012B61D1274B02221A60274BD5
:10056C001B684FF47A7202FB03F31946012000F06A
:10057C0065FC234B1B684FF47A7202FB03F319469C
:10058C00022000F05BFC1D4B1B681E4A82FB031211
:10059C009210DB17D31A1946002000F0F5FA174B0E
:1005AC001A68184B83FB02139910D317C91A0B4600
:1005BC009B000B445B00D11A012000F0E5FA104BB4
:1005CC001B68104A82FB03129210DB17D31A1946D0
:1005DC00022000F0D9FA0A4B1A680A4B83FB02136B
:1005EC009910D317C91A0B469B000B445B00D11A08
:1005FC00032000F0C9FA11E0940000201400002040
:10060C001C000020676666661800002000BF06E02C
:10061C0000BF04E000BF02E000BF00E000BF1E4BC3
:10062C001B68012B36D0032000F028FC0346012B5D
:10063C0017D11A4B1B685A1C18490A60184600F04F
:10064C000DFA164B1B685A4203F0030302F0030227
:10065C0058BF5342114A13604FF4FA71032000F053
:10066C00EDFB042000F00AFC0346012B12D10C4BCD
:10067C005B68013B1946012000F086FA084BDB68E9
:10068C00013B1946032000F07FFA4FF47A710420E5
:10069C0000F0D4FB00BF80BD94000020900000202F
:1006AC009800002080B582B000AF78607B68092B81
:1006BC0000F2808101A252F823F000BFF10600087D
:1006CC003907000881070008C9070008110800084D
:1006DC0059080008A1080008E908000831090008B9
:1006EC007909000800220121C64801F07EF8002299
:1006FC000221C44801F079F800220421C14801F01C
:10070C0074F800220821BF4801F06FF80022102174
:10071C00BC4801F06AF800222021BA4801F065F8C3
:10072C0001224021B74801F060F867E10022022164
:10073C00B44801F05AF800220421B24801F055F8EF
:10074C0001220121AF4801F050F801220821AD48E7
:10075C0001F04BF801221021AA4801F046F80122C1
:10076C002021A84801F041F801224021A54801F0C0
:10077C003CF843E100220121A24801F036F80022A6
:10078C000221A04801F031F8002208219D4801F017
:10079C002CF8002210219B4801F027F80022402160
:1007AC00984801F022F801220421964801F01DF826
:1007BC0001222021934801F018F81FE100220121A9
:1007CC00904801F012F8002202218E4801F00DF839
:1007DC00002204218B4801F008F8002208218948E6
:1007EC0001F003F800224021864800F0FEFF0122B0
:1007FC001021844800F0F9FF01222021814800F0EB
:10080C00F4FFFBE0002202217E4800F0EEFF002204
:10081C0004217C4800F0E9FF00222021794800F0F7
:10082C00E4FF00224021774800F0DFFF0122012184
:10083C00744800F0DAFF01220821724800F0D5FF5D
:10084C00012210216F4800F0D0FFD7E000220121D7
:10085C006C4800F0CAFF002204216A4800F0C5FF72
:10086C0000220821674800F0C0FF002220216548C3
:10087C0000F0BBFF00224021624800F0B6FF0122CD
:10088C000221604800F0B1FF012210215D4800F008
:10089C00ACFFB3E0002201215A4800F0A6FF002271
:1008AC000421584800F0A1FF00220821554800F00F
:1008BC009CFF00221021534800F097FF00222021BA
:1008CC00504800F092FF002240214E4800F08DFF6E
:1008DC00012202214B4800F088FF8FE00022012109
:1008EC00484800F082FF00220221464800F07DFFBC
:1008FC0000220421434800F078FF012208214148DE
:10090C0000F073FF012210213E4800F06EFF01221F
:10091C0020213C4800F069FF01224021394800F0B9
:10092C0064FF6BE000220121364800F05EFF0022DC
:10093C000221344800F059FF00220421314800F014
:10094C0054FF002208212F4800F04FFF00221021F5
:10095C002C4800F04AFF002220212A4800F045FFD5
:10096C0000224021274800F040FF47E000220121EF
:10097C00244800F03AFF00220221224800F035FF03
:10098C00002204211F4800F030FF002208211D48DE
:10099C0000F02BFF002220211A4800F026FF002235
:1009AC004021184800F021FF01221021154800F0C9
:1009BC001CFF23E001220121124800F016FF012246
:1009CC000221104800F011FF012204210D4800F013
:1009DC000CFF012208210B4800F007FF0122102117
:1009EC00084800F002FF01222021064800F0FDFE1D
:1009FC0001224021034800F0F8FE00BF00BF083779
:100A0C00BD4680BD000C014080B500AF0122012124
:100A1C00114800F0EAFE012202210F4800F0E5FE29
:100A2C00012204210C4800F0E0FE012208210A48B2
:100A3C0000F0DBFE01221021074800F0D6FE012257
:100A4C002021054800F0D1FE01224021024800F08F
:100A5C00CCFE00BF80BD00BF000C014080B582B051
:100A6C0000AF78607B68032B00F2848001A252F8FF
:100A7C0023F000BF910A0008CD0A0008090B0008FA
:100A8C00450B000800224FF480713D4800F0ADFE8C
:100A9C0001224FF400713A4800F0A7FE01224FF4F6
:100AAC008061374800F0A1FE01224FF40061344808
:100ABC0000F09BFE334B1B681846FFF7F3FD5AE022
:100ACC0001224FF480712E4800F08FFE00224FF46B
:100ADC0000712B4800F089FE01224FF480612848F8
:100AEC0000F083FE01224FF40061254800F07DFEEA
:100AFC00244B5B681846FFF7D5FD3CE001224FF410
:100B0C0080711F4800F071FE01224FF400711C48E7
:100B1C0000F06BFE00224FF48061194800F065FE76
:100B2C0001224FF40061164800F05FFE154B9B68E4
:100B3C001846FFF7B7FD1EE001224FF480711048F4
:100B4C0000F053FE01224FF400710D4800F04DFEF1
:100B5C0001224FF480610A4800F047FE00224FF456
:100B6C000061074800F041FE064BDB681846FFF7B2
:100B7C0099FD00E000BF00BF0837BD4680BD00BF37
:100B8C00000801409800002080B483B000AF78606A
:100B9C0039603B68002B05DC074A7B68002142F872
:100BAC00231004E004497B683A6841F8232000BF15
:100BBC000C37BD4680BC70479800002080B500AF54
:100BCC0000F010FB00F016F800F09CF800F04EF866
:100BDC0000F0FAF80020FFF7B3FA0346012B03D11B
:100BEC008021034800F019FEFFF760FBF2E700BF1D
:100BFC000008014080B590B000AF07F1180328221F
:100C0C000021184601F0DCFD3B1D00221A605A60E1
:100C1C009A60DA601A610223BB610123BB62102364
:100C2C00FB6200237B6307F11803184600F00EFEED
:100C3C000346002B01D000F0FBF80F237B60002350
:100C4C00BB600023FB6000233B6100237B613B1DE9
:100C5C000021184601F07CF80346002B01D000F06F
:100C6C00E7F800BF4037BD4680BD000080B586B0B8
:100C7C0000AF07F1080300221A605A609A60DA602C
:100C8C003B4600221A605A601D4B4FF080421A609E
:100C9C001B4B41F63F725A60194B00229A60184B5D
:100CAC000922DA60164B00221A61154B00229A6158
:100CBC00134801F0A9F90346002B01D000F0B8F855
:100CCC004FF48053BB6007F1080319460C4801F040
:100CDC0027FB0346002B01D000F0AAF800233B6051
:100CEC0000237B603B461946054801F0FFFC034698
:100CFC00002B01D000F09CF800BF1837BD4680BD1A
:100D0C00A800002080B586B000AF07F108030022D0
:100D1C001A605A609A60DA60284B9B69274A43F044
:100D2C0004039361254B9B6903F004037B607B6890
:100D3C00224B9B69214A43F0080393611F4B9B692B
:100D4C0003F008033B603B68002240F6BF711C486F
:100D5C0000F04BFD00227F211A4800F046FD40F6C2
:100D6C00BF73BB600123FB6000233B6102237B61EB
:100D7C0007F108031946124800F0A4FB7F23BB605F
:100D8C000123FB6000233B6102237B6107F1080315
:100D9C0019460C4800F096FB4FF46073BB600023BF
:100DAC00FB6001233B6107F108031946054800F07D
:100DBC0089FB00BF1837BD4680BD00BF0010024044
:100DCC0000080140000C014080B500AF0F4801F055
:100DDC006BF9FFF719FE01224FF6FF710C4800F07A
:100DEC0004FD0C4B01221A604FF4FA71032000F041
:100DFC0025F84FF47A71042000F020F84FF47A7142
:100E0C00052000F01BF800BF80BD00BFA80000202B
:100E1C00000801409400002080B582B000AF7860DB
:100E2C0000F040F8FFF7A6F900BF0837BD4680BDBB
:100E3C0080B400AF72B600BFFEE7000080B483B090
:100E4C0000AF786039603B68094A82FB031292104C
:100E5C00DB17D21A07497B6841F82320064A7B68C6
:100E6C00002142F8231000BF0C37BD4680BC7047F0
:100E7C006766666618010020F000002080B483B01D
:100E8C0000AF7860064A7B6852F82330012B01D101
:100E9C00012300E0002318460C37BD4680BC704788
:100EAC00F000002080B483B000AF00237B601CE016
:100EBC00124A7B6852F82330002B13DD0F4A7B68F3
:100ECC0052F823305A1E0D497B6841F823200B4AF7
:100EDC007B6852F82330002B04DC094A7B68012123
:100EEC0042F823107B6801337B607B68092BDFDDC4
:100EFC0000BF00BF0C37BD4680BC704718010020F6
:100F0C00F000002080B485B000AF154B9B69144AEB
:100F1C0043F001039361124B9B6903F00103BB6027
:100F2C00BB680F4BDB690E4A43F08053D3610C4B0B
:100F3C00DB6903F080537B607B680A4B5B68FB606A
:100F4C00FB6823F0E063FB60FB6843F08063FB60AD
:100F5C00044AFB68536000BF1437BD4680BC704721
:100F6C00001002400000014080B584B000AF7860F2
:100F7C007B681B68B3F1804F13D10C4BDB690B4AB8
:100F8C0043F00103D361094BDB6903F00103FB6000
:100F9C00FB68002200211C2000F05DFA1C2000F0F0
:100FAC0076FA00BF1037BD4680BD00BF001002406E
:100FBC0080B400AFFEE780B400AFFEE780B400AFB2
:100FCC00FEE780B400AFFEE780B400AFFEE780B46C
:100FDC0000AF00BFBD4680BC704780B400AF00BFFF
:100FEC00BD4680BC704780B400AF00BFBD4680BC1E
:100FFC00704780B500AF00F03BF900BF80BD00002A
:10100C0080B500AF024801F09BF800BF80BD00BF67
:10101C00A800002080B400AF00BFBD4680BC704764
:10102C0080B584B000AFF860B9607A60FB68DBB261
:10103C001A4601210A4800F0D8FBBB68DBB21A46FD
:10104C000221074800F0D1FB7B68DBB21A46042171
:10105C00034800F0CAFB00BF1037BD4680BD00BF7F
:10106C000008014080B584B000AFF860B9607A60C8
:10107C00FB68DBB21A4608210A4800F0B6FBBB68D5
:10108C00DBB21A461021074800F0AFFB7B68DBB2DD
:10109C001A462021034800F0A8FB00BF1037BD46BC
:1010AC0080BD00BF0008014080B582B000AF786001
:1010BC007B68002B0DD07B68012B15D10022012100
:1010CC000C4800F092FB002208210A4800F08DFB2E
:1010DC000BE001220121074800F087FB01220821C7
:1010EC00044800F082FB00E000BF00BF0837BD469B
:1010FC0080BD00BF0008014080B582B000AF7860B1
:10110C007B68002B0DD07B68012B15D100220221AE
:10111C000C4800F06AFB002210210A4800F065FB25
:10112C000BE001220221074800F05FFB0122102195
:10113C00044800F05AFB00E000BF00BF0837BD4672
:10114C0080BD00BF0008014080B582B000AF786060
:10115C007B68002B0DD07B68012B15D1002204215C
:10116C000C4800F042FB002220210A4800F03DFB15
:10117C000BE001220421074800F037FB012220215B
:10118C00044800F032FB00E000BF00BF0837BD464A
:10119C0080BD00BF00080140FFF73CFF0B480C4925
:1011AC000C4A002302E0D458C4500433C4188C42B7
:1011BC00F9D3094A094C002301E013600432A2421E
:1011CC00FBD301F005FBFFF7F9FC70470000002092
:1011DC002C000020682800082C000020440100206E
:1011EC00FEE7000080B500AF084B1B68074A43F0D0
:1011FC0010031360032000F023F90F2000F008F80F
:10120C00FFF780FE0023184680BD00BF002002407F
:10121C0080B582B000AF7860124B1A68124B1B7805
:10122C0019464FF47A73B3FBF1F3B2FBF3F31846A0
:10123C0000F03BF90346002B01D001230EE07B6844
:10124C000F2B0AD8002279684FF0FF3000F003F919
:10125C00064A7B681360002300E001231846083718
:10126C00BD4680BD20000020280000202400002066
:10127C0080B400AF054B1B781A46054B1B68134412
:10128C00034A136000BFBD4680BC70472800002095
:10129C004001002080B400AF024B1B681846BD46CD
:1012AC0080BC70474001002080B485B000AF7860EE
:1012BC007B6803F00703FB600C4BDB68BB60BA6810
:1012CC004FF6FF031340BB60FB681A02BB68134365
:1012DC0043F0BF6343F40033BB60044ABB68D36084
:1012EC0000BF1437BD4680BC704700BF00ED00E066
:1012FC0080B400AF044BDB681B0A03F007031846ED
:10130C00BD4680BC704700BF00ED00E080B483B0E8
:10131C0000AF0346FB7197F90730002B0BDBFB7911
:10132C0003F01F02064997F907305B09012000FA08
:10133C0002F241F8232000BF0C37BD4680BC704739
:10134C0000E100E080B483B000AF03463960FB716C
:10135C0097F90730002B0ADB3B68DAB20C4997F996
:10136C0007301201D2B20B4483F800230AE03B6829
:10137C00DAB20849FB7903F00F03043B1201D2B235
:10138C000B441A7600BF0C37BD4680BC704700BFBB
:10139C0000E100E000ED00E080B489B000AFF8603F
:1013AC00B9607A60FB6803F00703FB61FB69C3F16A
:1013BC000703042B28BF0423BB61FB690433062BF2
:1013CC0002D9FB69033B00E000237B614FF0FF3245
:1013DC00BB6902FA03F3DA43BB681A407B699A4093
:1013EC004FF0FF317B6901FA03F3D9437B680B4063
:1013FC00134318462437BD4680BC704780B582B075
:10140C0000AF78607B68013BB3F1807F01D301238F
:10141C000FE00A4A7B68013B53600F214FF0FF300D
:10142C00FFF790FF054B00229A60044B07221A60CD
:10143C00002318460837BD4680BD00BF10E000E011
:10144C0080B582B000AF78607868FFF72DFF00BFE1
:10145C000837BD4680BD80B586B000AF0346B96085
:10146C007A60FB7300237B61FFF742FF78617A6837
:10147C00B9687869FFF790FF024697F90F3011466B
:10148C001846FFF75FFF00BF1837BD4680BD80B51B
:10149C0082B000AF0346FB7197F907301846FFF78F
:1014AC0035FF00BF0837BD4680BD80B582B000AFA8
:1014BC0078607868FFF7A2FF034618460837BD46E8
:1014CC0080BD000080B48BB000AF78603960002321
:1014DC007B6200233B6261E101227B6A02FA03F327
:1014EC00FB613B681B68FA691340BB61BA69FB6915
:1014FC009A4240F050813B685B68974A93425ED0B9
:10150C00954A934275D8954A934258D0934A934240
:10151C006FD8934A934252D0914A934269D8914AD8
:10152C0093424CD08F4A934263D88F4A934246D011
:10153C008D4A93425DD8122B2AD8122B59D801A26E
:10154C0052F823F0CB150008A5150008B7150008B4
:10155C00F9150008FF150008FF150008FF15000815
:10156C00FF150008FF150008FF150008FF150008FF
:10157C00FF150008FF150008FF150008FF150008EF
:10158C00FF150008FF150008AD150008C11500086F
:10159C00764A934213D02CE03B68DB683B6229E02F
:1015AC003B68DB6804333B6224E03B68DB68083350
:1015BC003B621FE03B68DB680C333B621AE03B6824
:1015CC009B68002B02D104233B6213E03B689B68B1
:1015DC00012B05D108233B627B68FA691A6109E08B
:1015EC0008233B627B68FA695A6103E000233B6283
:1015FC0000E000BFBB69FF2B01D87B6801E07B6872
:10160C0004337B61BB69FF2B02D87B6A9B0002E031
:10161C007B6A083B9B003B617B691A680F213B6925
:10162C0001FA03F3DB431A40396A3B6901FA03F30D
:10163C001A437B691A603B685B6803F08053002B8C
:10164C0000F0A9804A4B9B69494A43F0010393611E
:10165C00474B9B6903F00103BB60BB68454A7B6A3F
:10166C009B08023352F82330FB607B6A03F00303C0
:10167C009B000F2202FA03F3DB43FA681340FB6072
:10168C007B683D4A93420DD07B683C4A934207D01D
:10169C007B683B4A934201D1022304E0032302E01E
:1016AC00012300E000237A6A02F0030292009340C7
:1016BC00FA681343FB602F497B6A9B080233FA6874
:1016CC0041F823203B685B6803F48013002B06D0A1
:1016DC002C4B9A682B49BB6913438B6006E0294B52
:1016EC009A68BB69DB43274913408B603B685B6896
:1016FC0003F40013002B06D0224BDA682149BB6996
:10170C001343CB6006E01F4BDA68BB69DB431D4912
:10171C001340CB603B685B6803F40033002B06D0AE
:10172C00184B5A681749BB6913434B6006E0154BBD
:10173C005A68BB69DB43134913404B603B685B68D9
:10174C0003F48033002B1FD00E4B1A680D49BB6974
:10175C0013430B601FE000BF00003210000031107B
:10176C0000002210000021100000121000001110C7
:10177C00001002400000014000080140000C014034
:10178C0000100140000401400B4B1A68BB69DB439D
:10179C00094913400B607B6A01337B623B681A6812
:1017AC007B6A22FA03F3002B7FF496AE00BF00BFD6
:1017BC002C37BD4680BC70470004014080B485B016
:1017CC0000AF78600B467B807B689A687B881340FF
:1017DC00002B02D00123FB7301E00023FB73FB7B86
:1017EC0018461437BD4680BC704780B483B000AF38
:1017FC0078600B467B8013467B707B78002B03D084
:10180C007A887B681A6103E07B881A047B681A610A
:10181C0000BF0C37BD4680BC704780B485B000AFAC
:10182C0078600B467B807B68DB68FB607A88FB68A2
:10183C0013401A04FB68D9437B880B401A437B681E
:10184C001A6100BF1437BD4680BC704780B586B0A6
:10185C0000AF78607B68002B01D1012372E27B68BA
:10186C001B6803F00103002B00F08780924B5B6830
:10187C0003F00C03042B0CD08F4B5B6803F00C03B0
:10188C00082B12D18C4B5B6803F48033B3F5803F8B
:10189C000BD1894B1B6803F40033002B6CD07B6895
:1018AC005B68002B68D101234CE27B685B68B3F565
:1018BC00803F06D1804B1B687F4A43F48033136012
:1018CC002EE07B685B68002B0CD17B4B1B687A4A43
:1018DC0023F480331360784B1B68774A23F48023FE
:1018EC0013601DE07B685B68B3F5A02F0CD1724BC5
:1018FC001B68714A43F4802313606F4B1B686E4A5C
:10190C0043F4803313600BE06B4B1B686A4A23F47F
:10191C0080331360684B1B68674A23F48023136081
:10192C007B685B68002B13D0FFF7B4FC386108E0D0
:10193C00FFF7B0FC02463B69D31A642B01D9032391
:10194C0000E25D4B1B6803F40033002BF0D014E075
:10195C00FFF7A0FC386108E0FFF79CFC02463B69EE
:10196C00D31A642B01D90323ECE1534B1B6803F40A
:10197C000033002BF0D100E000BF7B681B6803F044
:10198C000203002B63D04C4B5B6803F00C03002B61
:10199C000BD0494B5B6803F00C03082B1CD1464B56
:1019AC005B6803F48033002B16D1434B1B6803F0A8
:1019BC000203002B05D07B681B69012B01D001238E
:1019CC00C0E13D4B1B6823F0F8027B685B69DB00D0
:1019DC00394913430B603AE07B681B69002B20D01C
:1019EC00364B01221A60FFF755FC386108E0FFF70F
:1019FC0051FC02463B69D31A022B01D90323A1E106
:101A0C002D4B1B6803F00203002BF0D02A4B1B68F4
:101A1C0023F0F8027B685B69DB00274913430B60FA
:101A2C0015E0264B00221A60FFF734FC386108E001
:101A3C00FFF730FC02463B69D31A022B01D9032372
:101A4C0080E11D4B1B6803F00203002BF0D17B6877
:101A5C001B6803F00803002B3AD07B689B69002BB2
:101A6C0019D0174B01221A60FFF714FC386108E0FB
:101A7C00FFF710FC02463B69D31A022B01D9032352
:101A8C0060E10D4B5B6A03F00203002BF0D00120E8
:101A9C0000F09CFA1CE00A4B00221A60FFF7FAFBDC
:101AAC0038610FE0FFF7F6FB02463B69D31A022BB5
:101ABC0008D9032346E100BF001002400000424257
:101ACC0080044242924B5B6A03F00203002BE9D183
:101ADC007B681B6803F00403002B00F0A680002336
:101AEC00FB758B4BDB6903F08053002B0DD1884BBE
:101AFC00DB69874A43F08053D361854BDB6903F084
:101B0C008053BB60BB680123FB75824B1B6803F4DD
:101B1C008073002B18D17F4B1B687E4A43F4807373
:101B2C001360FFF7B7FB386108E0FFF7B3FB024621
:101B3C003B69D31A642B01D9032303E1754B1B6852
:101B4C0003F48073002BF0D07B68DB68012B06D18B
:101B5C006F4B1B6A6E4A43F0010313622DE07B68E6
:101B6C00DB68002B0CD16A4B1B6A694A23F001031A
:101B7C001362674B1B6A664A23F0040313621CE072
:101B8C007B68DB68052B0CD1614B1B6A604A43F008
:101B9C00040313625E4B1B6A5D4A43F0010313623C
:101BAC000BE05B4B1B6A5A4A23F001031362584B40
:101BBC001B6A574A23F0040313627B68DB68002B13
:101BCC0015D0FFF767FB38610AE0FFF763FB0246AD
:101BDC003B69D31A41F28832934201D90323B1E015
:101BEC004B4B1B6A03F00203002BEED014E0FFF703
:101BFC0051FB38610AE0FFF74DFB02463B69D31AF3
:101C0C0041F28832934201D903239BE0404B1B6A7B
:101C1C0003F00203002BEED1FB7D012B05D13C4BD5
:101C2C00DB693B4A23F08053D3617B68DB69002B73
:101C3C0000F08780364B5B6803F00C03082B61D0F7
:101C4C007B68DB69022B46D1334B00221A60FFF70D
:101C5C0021FB386108E0FFF71DFB02463B69D31AF4
:101C6C00022B01D903236DE0294B1B6803F0007391
:101C7C00002BF0D17B681B6AB3F5803F08D1244B55
:101C8C005B6823F400327B689B68214913434B60EB
:101C9C001F4B5B6823F474127B68196A7B685B6A60
:101CAC000B431B4913434B601B4B01221A60FFF77C
:101CBC00F1FA386108E0FFF7EDFA02463B69D31AF6
:101CCC00022B01D903233DE0114B1B6803F0007379
:101CDC00002BF0D035E0104B00221A60FFF7DAFA37
:101CEC00386108E0FFF7D6FA02463B69D31A022B9B
:101CFC0001D9032326E0064B1B6803F00073002B6D
:101D0C00F0D11EE07B68DB69012B07D1012319E0C0
:101D1C000010024000700040600042420B4B5B68B8
:101D2C00FB60FB6803F480327B681B6A9A4206D125
:101D3C00FB6803F470127B685B6A9A4201D0012342
:101D4C0000E0002318461837BD4680BD0010024045
:101D5C0080B584B000AF786039607B68002B01D10E
:101D6C000123D0E06A4B1B6803F007033A689A42E0
:101D7C0010D9674B1B6823F0070265493B68134376
:101D8C000B60634B1B6803F007033A689A4201D05F
:101D9C000123B8E07B681B6803F00203002B20D002
:101DAC007B681B6803F00403002B05D0594B5B6860
:101DBC00584A43F4E06353607B681B6803F00803E4
:101DCC00002B05D0534B5B68524A43F4605353606D
:101DDC00504B5B6823F0F0027B689B684D491343C2
:101DEC004B607B681B6803F00103002B40D07B68C1
:101DFC005B68012B07D1474B1B6803F40033002BA6
:101E0C0015D101237FE07B685B68022B07D1414B26
:101E1C001B6803F00073002B09D1012373E03D4BC9
:101E2C001B6803F00203002B01D101236BE0394B3B
:101E3C005B6823F003027B685B68364913434B6095
:101E4C00FFF728FAF8600AE0FFF724FA0246FB686D
:101E5C00D31A41F28832934201D9032353E02D4B1C
:101E6C005B6803F00C027B685B689B009A42EBD1C9
:101E7C00274B1B6803F007033A689A4210D2244B95
:101E8C001B6823F0070222493B6813430B60204B6D
:101E9C001B6803F007033A689A4201D0012332E031
:101EAC007B681B6803F00403002B08D0194B5B689C
:101EBC0023F4E0627B68DB68164913434B607B6854
:101ECC001B6803F00803002B09D0124B5B6823F44A
:101EDC0060527B681B69DB000E4913434B6000F0BA
:101EEC0021F802460B4B5B681B0903F00F030A49F0
:101EFC00CB5C22FA03F3094A1360094B1B681846A2
:101F0C00FFF786F9002318461037BD4680BD00BF89
:101F1C0000200240001002403C2800082000002055
:101F2C002400002080B487B000AF0023FB600023A6
:101F3C00BB6000237B6100237B6000233B611E4B55
:101F4C005B68FB60FB6803F00C03042B02D0082BCE
:101F5C0003D027E0194B3B6127E0FB689B0C03F097
:101F6C000F03174AD35C7B60FB6803F48033002BB0
:101F7C0010D0114B5B685B0C03F00103114AD35C6E
:101F8C00BB607B680D4A03FB02F2BB68B2FBF3F348
:101F9C007B6104E07B680C4A02FB03F37B617B6989
:101FAC003B6102E0054B3B6100BF3B6918461C37A7
:101FBC00BD4680BC704700BF0010024000127A0082
:101FCC004C2800085C28000800093D0080B485B04E
:101FDC0000AF78600A4B1B680A4AA2FB03235B0A1A
:101FEC007A6802FB03F3FB6000BFFB685A1EFA60C1
:101FFC00002BF9D100BF00BF1437BD4680BC704721
:10200C0020000020D34D621080B582B000AF786004
:10201C007B68002B01D1012341E07B6893F83D30B4
:10202C00DBB2002B06D17B68002283F83C20786859
:10203C00FEF79AFF7B68022283F83D207B681A68C2
:10204C007B6804331946104600F056FA7B6801226F
:10205C0083F846207B68012283F83E207B680122AE
:10206C0083F83F207B68012283F840207B680122A3
:10207C0083F841207B68012283F842207B6801228F
:10208C0083F843207B68012283F844207B6801227B
:10209C0083F845207B68012283F83D2000231846F5
:1020AC000837BD4680BD000080B485B000AF7860B5
:1020BC007B6893F83D30DBB2012B01D0012335E076
:1020CC007B68022283F83D207B681B68DA687B689A
:1020DC001B6842F00102DA607B681B68164A934267
:1020EC0009D07B681B68B3F1804F04D07B681B68F8
:1020FC00124A934211D17B681B689B6803F007035B
:10210C00FB60FB68062B10D07B681B681A687B6829
:10211C001B6842F001021A6007E07B681B681A68B2
:10212C007B681B6842F001021A60002318461437C2
:10213C00BD4680BC704700BF002C0140000400402D
:10214C0080B584B000AF78607B681B68DB68FB608F
:10215C007B681B681B69BB60BB6803F00203002B28
:10216C0020D0FB6803F00203002B1BD07B681B689C
:10217C006FF002021A617B6801221A777B681B6878
:10218C009B6903F00303002B03D0786800F098F9E7
:10219C0005E0786800F08BF9786800F09AF97B68B4
:1021AC0000221A77BB6803F00403002B20D0FB68D5
:1021BC0003F00403002B1BD07B681B686FF0040238
:1021CC001A617B6802221A777B681B689B6903F48F
:1021DC004073002B03D0786800F072F905E0786842
:1021EC0000F065F9786800F074F97B6800221A77C2
:1021FC00BB6803F00803002B20D0FB6803F0080336
:10220C00002B1BD07B681B686FF008021A617B687F
:10221C0004221A777B681B68DB6903F00303002B2D
:10222C0003D0786800F04CF905E0786800F03FF9CD
:10223C00786800F04EF97B6800221A77BB6803F0CF
:10224C001003002B20D0FB6803F01003002B1BD0D5
:10225C007B681B686FF010021A617B6808221A7782
:10226C007B681B68DB6903F44073002B03D0786830
:10227C0000F026F905E0786800F019F9786800F0AC
:10228C0028F97B6800221A77BB6803F00103002B46
:10229C000CD0FB6803F00103002B07D07B681B6894
:1022AC006FF001021A617868FEF7B6FDBB6803F0A7
:1022BC008003002B0CD0FB6803F08003002B07D0AD
:1022CC007B681B686FF080021A61786800F06FFA07
:1022DC00BB6803F04003002B0CD0FB6803F04003F9
:1022EC00002B07D07B681B686FF040021A6178687E
:1022FC0000F0F8F8BB6803F02003002B0CD0FB684F
:10230C0003F02003002B07D07B681B686FF02002C2
:10231C001A61786800F042FA00BF1037BD4680BDE4
:10232C0080B584B000AF786039600023FB737B68A4
:10233C0093F83C30012B01D10223B4E07B680122DD
:10234C0083F83C207B68022283F83D207B681B6865
:10235C009B68BB60BB6823F07703BB60BB6823F44E
:10236C007F43BB607B681B68BA689A603B681B68DC
:10237C00B3F5005F3ED0B3F5005F00F28780B3F594
:10238C00805F00F08680B3F5805F7FD8702B1AD009
:10239C00702B7BD8602B50D0602B77D8502B3CD037
:1023AC00502B73D8402B58D0402B6FD8302B64D087
:1023BC00302B6BD8202B60D0202B67D8002B5CD017
:1023CC00102B5AD062E07B6818683B6899683B68B0
:1023DC005A683B68DB6800F06AF97B681B689B688D
:1023EC00BB60BB6843F07703BB607B681B68BA6853
:1023FC009A604FE07B6818683B6899683B685A683C
:10240C003B68DB6800F053F97B681B689A687B6853
:10241C001B6842F480429A603CE07B6818683B6819
:10242C0059683B68DB681A4600F0CAF87B681B6881
:10243C005021184600F021F92CE07B6818683B68A5
:10244C0059683B68DB681A4600F0E8F87B681B6843
:10245C006021184600F011F91CE07B6818683B6895
:10246C0059683B68DB681A4600F0AAF87B681B6861
:10247C004021184600F001F90CE07B681A683B68B3
:10248C001B681946104600F0F8F803E00123FB73B3
:10249C0000E000BF7B68012283F83D207B680022AE
:1024AC0083F83C20FB7B18461037BD4680BD80B4BA
:1024BC0083B000AF786000BF0C37BD4680BC70475E
:1024CC0080B483B000AF786000BF0C37BD4680BCD1
:1024DC00704780B483B000AF786000BF0C37BD4646
:1024EC0080BC704780B483B000AF786000BF0C37FD
:1024FC00BD4680BC7047000080B485B000AF7860EA
:10250C0039607B681B68FB607B682B4A934207D061
:10251C007B68B3F1804F03D07B68284A934208D183
:10252C00FB6823F07003FB603B685B68FA6813433D
:10253C00FB607B68204A934207D07B68B3F1804FE5
:10254C0003D07B681D4A934208D1FB6823F4407387
:10255C00FB603B68DB68FA681343FB60FB6823F0A5
:10256C0080023B685B691343FB607B68FA681A6006
:10257C003B689A687B68DA623B681A687B689A6287
:10258C007B680D4A934203D13B681A697B681A63D6
:10259C007B6801225A617B681B6903F00103002BE5
:1025AC0005D07B681B6923F001027B681A6100BFB0
:1025BC001437BD4680BC7047002C0140000400401D
:1025CC0080B487B000AFF860B9607A60FB681B6AB2
:1025DC007B61FB681B6A23F00102FB681A62FB68D3
:1025EC009B693B613B6923F0F0033B617B681B01FA
:1025FC003A6913433B617B6923F00A037B617A6977
:10260C00BB6813437B61FB683A699A61FB687A6922
:10261C001A6200BF1C37BD4680BC704780B487B0BF
:10262C0000AFF860B9607A60FB681B6A7B61FB687D
:10263C001B6A23F01002FB681A62FB689B693B6102
:10264C003B6923F470433B617B681B033A6913437A
:10265C003B617B6923F0A0037B61BB681B017A693A
:10266C0013437B61FB683A699A61FB687A691A6269
:10267C0000BF1C37BD4680BC704780B485B000AF2E
:10268C00786039607B689B68FB60FB6823F07003A3
:10269C00FB603A68FB68134343F00703FB607B68FD
:1026AC00FA689A6000BF1437BD4680BC704780B48E
:1026BC0087B000AFF860B9607A603B60FB689B68DC
:1026CC007B617B6923F47F437B613B681A027B68E7
:1026DC001A43BB6813437A6913437B61FB687A69BD
:1026EC009A6000BF1C37BD4680BC704780B485B073
:1026FC0000AF786039607B6893F83C30012B01D1D6
:10270C00022341E07B68012283F83C207B68022293
:10271C0083F83D207B681B685B68FB607B681B68EB
:10272C009B68BB60FB6823F07003FB603B681B6815
:10273C00FA681343FB607B681B68FA685A607B6815
:10274C001B68144A934209D07B681B68B3F1804F15
:10275C0004D07B681B68104A93420CD1BB6823F0F1
:10276C008003BB603B685B68BA681343BB607B68E3
:10277C001B68BA689A607B68012283F83D207B68ED
:10278C00002283F83C20002318461437BD4680BC39
:10279C00704700BF002C01400004004080B483B09F
:1027AC0000AF786000BF0C37BD4680BC704780B46A
:1027BC0083B000AF786000BF0C37BD4680BC70475B
:1027CC0003460244934200D1704703F8011BF9E71A
:1027DC0070B500260C4D0D4C641BA410A64209D1FB
:1027EC0000F01AF800260A4D0A4C641BA410A642ED
:1027FC0005D170BD55F8043B98470136EEE755F806
:10280C00043B98470136F2E760280008602800086E
:10281C006028000864280008F8B500BFF8BC08BCA4
:10282C009E467047F8B500BFF8BC08BC9E46704782
:10283C000000000000000000010203040607080964
:10284C0002030405060708090A0B0C0D0E0F1010E5
:04285C000102000075
:04286000310100083A
:042864000D0100085A
:10286800000C0140000C0140000C014080000001F8
:102878000002000005000000020000000300000044
:0C28880000127A001000000001000000A7
:04000005080011A539
:00000001FF
