:020000040800F2
:1000000000280020351500084D1300085313000880
:10001000591300085F130008651300080000000072
:100020000000000000000000000000006B1300084A
:100030007713000800000000831300088F130008E6
:100040007D1500087D1500087D1500087D15000848
:100050007D1500087D1500087D1500087D15000838
:100060007D1500087D1500087D1500087D15000828
:100070007D1500087D1500087D1500087D15000818
:100080007D1500087D1500087D1500087D15000808
:100090007D1500087D1500087D1500087D150008F8
:1000A0007D1500087D1500087D1500087D150008E8
:1000B0009D1300087D150008000000007D15000854
:1000C0007D15000800000000000000007D150008FC
:1000D000000000007D1500087D15000800000000EC
:1000E0007D1500087D1500087D1500080000000042
:1000F0000000000000000000000000000000000000
:0C01000000000000000000005FF808F1A3
:10010C0010B5054C237833B9044B13B10448AFF345
:10011C0000800123237010BD34000020000000007B
:10012C00842B000808B5034B1BB103490348AFF3FC
:10013C00008008BD0000000038000020842B00085F
:10014C0080B483B000AF7860094A7B6852F82330E2
:10015C00012B06D1064A7B68002142F823100123AB
:10016C0000E0002318460C37BD4680BC704700BF2A
:10017C005000002080B483B000AF7860094A7B68DF
:10018C0052F82330012B06D1064A7B68002142F835
:10019C002310012300E0002318460C37BD4680BC19
:1001AC00704700BF5C00002080B582B000AF002318
:1001BC007B607CE0424A7B6852F8232041497B6893
:1001CC0041F82320404A7B6852F823203C497B6845
:1001DC0041F823203D4A7B6852F823203C497B6838
:1001EC0031F813301946104601F0B0FC034619469D
:1001FC00354A7B6842F82310324A7B6852F8232038
:10020C002F497B6851F823309A424DD12C4A7B6898
:10021C0052F823202C497B6851F823309A4243D161
:10022C002C4A7B6852F8232027497B6851F82330ED
:10023C009A4219D0244A7B6852F8232025497B68BE
:10024C0041F82320204A7B6852F82330002B2BD115
:10025C00214A7B68012142F82310204A7B684FF425
:10026C00967142F823101FE01C4A7B6852F8233029
:10027C005A1E1A497B6841F82320184A7B6852F8A9
:10028C002330002B10DC154A7B684FF4967142F832
:10029C002310104A7B6852F82330002B04D1104AEB
:1002AC007B68012142F823107B6801337B607B68FB
:1002BC00022B7FF77FAF00BF00BF0837BD4680BD64
:1002CC007400002068000020800000200000002046
:1002DC000C0000208C000020500000209800002012
:1002EC005C00002080B500AFB54B1B68013B042BB4
:1002FC0000F2DB8101A252F823F000BF1D030008BD
:10030C00EB0300087304000847050008E505000826
:10031C00002001F091F8002001F0B6F8002001F067
:10032C00DBF8A74B02221A6041F28831002000F062
:10033C004DFFA44B1B684FF47A7202FB03F3194672
:10034C00012000F043FFA04B1B684FF47A7202FBB4
:10035C0003F31946022000F039FF9C4B00221A606F
:10036C009A4B00225A60994B00229A60954B1B685D
:10037C00974A82FB03129210DB17D31A19460020FE
:10038C0000F0D6FD8F4B1A68914B83FB021399102A
:10039C00D317C91A0B469B000B445B00D11A0120E2
:1003AC0000F0C6FD884B1B68894A82FB0312921031
:1003BC00DB17D31A1946022000F0BAFD824B1A68DB
:1003CC00834B83FB02139910D317C91A0B469B005E
:1003DC000B445B00D11A032000F0AAFD6EE1012250
:1003EC000121002000F0E4FF00220121012001F096
:1003FC0001F8022000F00AFF0346012B28D1704BB4
:10040C0003221A60734B1B684FF47A7202FB03F3DE
:10041C001946022000F0DAFE6E4B1B686C4A82FB18
:10042C0003129210DB17D31A1946022000F080FD3C
:10043C00684B1A68664B83FB02139910D317C91AC1
:10044C000B469B000B445B00D11A032000F070FD9F
:10045C000220FFF775FE0346012B40F02881584B14
:10046C0009221A6023E101220121002000F0A0FFE3
:10047C0001220021012000F0BDFF022000F0C6FE89
:10048C000346012B4ED14E4B04221A604E4B1B6877
:10049C004FF47A7202FB03F31946012000F096FE2A
:1004AC00484B1B684FF47A7202FB03F31946022087
:1004BC0000F08CFE444B1B68454A82FB03129210E1
:1004CC00DB17D31A1946002000F032FD3E4B1A6898
:1004DC003F4B83FB02139910D317C91A0B469B0091
:1004EC000B445B00D11A012000F022FD354B1B6838
:1004FC00374A82FB03129210DB17D31A19460220DB
:10050C0000F016FD2F4B1A68314B83FB0213991028
:10051C00D317C91A0B469B000B445B00D11A03205E
:10052C0000F006FD0220FFF70BFE0346012B40F006
:10053C00C080234B09221A60BBE00022012101205C
:10054C0000F036FF01220121002000F053FF0120B2
:10055C0000F05CFE0346012B28D1194B05221A60D2
:10056C001C4B1B684FF47A7202FB03F319460120F3
:10057C0000F02CFE174B1B68154A82FB03129210DD
:10058C00DB17D31A1946002000F0D2FC114B1A6865
:10059C000F4B83FB02139910D317C91A0B469B0000
:1005AC000B445B00D11A012000F0C2FC0220FFF7C3
:1005BC00C7FD0346012B7ED1014B09221A607AE05C
:1005CC00A80000201C000020240000205000002067
:1005DC00676666662000002001220021012000F0E1
:1005EC00E7FE01220121002000F004FF012000F0B1
:1005FC000DFE0346012B4ED14F4B02221A604F4B7E
:10060C001B684FF47A7202FB03F31946012000F0C9
:10061C00DDFD4B4B1B684FF47A7202FB03F319465A
:10062C00022000F0D3FD454B1B68464A82FB0312A7
:10063C009210DB17D31A1946002000F079FC3F4BBF
:10064C001A68404B83FB02139910D317C91A0B4637
:10065C009B000B445B00D11A012000F069FC384B65
:10066C001B68384A82FB03129210DB17D31A194607
:10067C00022000F05DFC324B1A68324B83FB0213F4
:10068C009910D317C91A0B469B000B445B00D11A67
:10069C00032000F04DFC0220FFF752FD0346012B16
:1006AC000BD1254B09221A6007E000BF06E000BF02
:1006BC0004E000BF02E000BF00E000BF1E4B1B685F
:1006CC00012B36D0032000F0A1FD0346012B17D1DE
:1006DC001D4B1B685A1C1C490A60184600F092FB03
:1006EC00194B1B685A4203F0030302F0030258BF74
:1006FC005342154A13604FF4FA71032000F066FD63
:10070C00042000F083FD0346012B12D10F4B5B68D4
:10071C00013B1946012000F00BFC0C4BDB68013B44
:10072C001946032000F004FC4FF47A71042000F009
:10073C004DFD00BF80BD00BFA80000201C000020A4
:10074C002400002067666666A4000020AC00002030
:10075C0080B500AFB74B1B68092B08D0092B00F3F1
:10076C001781072B3DD0082B00F0A48010E100204E
:10077C0000F062FE002000F087FE002000F0ACFECE
:10078C00AD4B1B684FF47A7202FB03F3194606203B
:10079C0000F01CFD0020FFF7D3FC0346012B02D117
:1007AC00A44B07221A600120FFF7CAFC0346012B59
:1007BC0002D1A04B08221A60002000F027FD03464E
:1007CC00012B40F0E7809B4B01221A609B4B1B686E
:1007DC004FF47A7202FB03F31946002000F0F6FC8A
:1007EC00D8E001220121002000F0E2FD00220121CD
:1007FC00012000F0FFFD0120FFF7A2FC0346012BB6
:10080C0002D18C4B08221A600020FFF7B3FC034680
:10081C00012B02D1874B01221A60062000F0F6FC56
:10082C000346012B40F0B880824B01221A60824BA8
:10083C001B684FF47A7202FB03F31946062000F092
:10084C00C5FC7D4B1B687E4A82FB03129210DB17A2
:10085C00D31A1946002000F06BFB774B1A68784BC3
:10086C0083FB02139910D317C91A0B469B000B4438
:10087C005B00D11A012000F05BFB6F4B1B68704AC8
:10088C0082FB03129210DB17D31A1946022000F0D8
:10089C004FFB694B1A686A4B83FB02139910D317F1
:1008AC00C91A0B469B000B445B00D11A032000F0C5
:1008BC003FFB71E000220121012000F079FD0122B3
:1008CC000121002000F096FD0020FFF739FC0346C3
:1008DC00012B02D1574B07221A600120FFF74AFC6B
:1008EC000346012B05D0062000F090FC0346012B9B
:1008FC0002D1504B01221A60062000F087FC0346FF
:10090C00012B4BD14B4B01221A604B4B1B684FF404
:10091C007A7202FB03F31946062000F057FC464B93
:10092C001B68474A82FB03129210DB17D31A194635
:10093C00002000F0FDFA404B1A68414B83FB021378
:10094C009910D317C91A0B469B000B445B00D11AA4
:10095C00012000F0EDFA384B1B68394A82FB031278
:10096C009210DB17D31A1946022000F0E1FA324B31
:10097C001A68334B83FB02139910D317C91A0B4611
:10098C009B000B445B00D11A032000F0D1FA05E068
:10099C0000BF04E000BF02E000BF00E000BF254B39
:1009AC001B68092B44D0032000F030FC0346012BBC
:1009BC0017D1244B1B685A1C22490A60184600F0B8
:1009CC0021FA204B1B685A4203F0030302F0030286
:1009DC0058BF53421B4A13604FF4FA71032000F0C6
:1009EC00F5FB042000F012FC0346012B20D1164B22
:1009FC001B68013B1946002000F09AFA124B5B6809
:100A0C00013B1946012000F093FA0F4B9B68013B08
:100A1C001946022000F08CFA0B4BDB68013B19469F
:100A2C00032000F085FA4FF47A71042000F0CEFB1D
:100A3C0000BF80BDA800002018000020140000207A
:100A4C0067666666A4000020AC00002080B582B00A
:100A5C0000AF78607B68092B00F2808101A252F80C
:100A6C0023F000BF990A0008E10A0008290B0008CE
:100A7C00710B0008B90B0008010C0008490C0008A8
:100A8C00910C0008D90C0008210D0008002201214E
:100A9C00C64801F072F800220221C44801F06DF83A
:100AAC0000220421C14801F068F800220821BF4847
:100ABC0001F063F800221021BC4801F05EF800221E
:100ACC002021BA4801F059F801224021B74801F021
:100ADC0054F867E100220221B44801F04EF80022DC
:100AEC000421B24801F049F801220121AF4801F07C
:100AFC0044F801220821AD4801F03FF801221021F1
:100B0C00AA4801F03AF801222021A84801F035F852
:100B1C0001224021A54801F030F843E100220121D7
:100B2C00A24801F02AF800220221A04801F025F881
:100B3C00002208219D4801F020F8002210219B483A
:100B4C0001F01BF800224021984801F016F8012210
:100B5C000421964801F011F801222021934801F05C
:100B6C000CF81FE100220121904801F006F8002248
:100B7C0002218E4801F001F8002204218B4800F07C
:100B8C00FCFF00220821894800F0F7FF00224021D9
:100B9C00864800F0F2FF01221021844800F0EDFF9E
:100BAC0001222021814800F0E8FFFBE00022022115
:100BBC007E4800F0E2FF002204217C4800F0DDFFBB
:100BCC0000222021794800F0D8FF002240217748EC
:100BDC0000F0D3FF01220121744800F0CEFF012266
:100BEC000821724800F0C9FF012210216F4800F063
:100BFC00C4FFD7E0002201216C4800F0BEFF0022A8
:100C0C0004216A4800F0B9FF00220821674800F06F
:100C1C00B4FF00222021654800F0AFFF00224021E4
:100C2C00624800F0AAFF01220221604800F0A5FFF3
:100C3C00012210215D4800F0A0FFB3E00022012149
:100C4C005A4800F09AFF00220421584800F095FF02
:100C5C0000220821554800F090FF00221021534833
:100C6C0000F08BFF00222021504800F086FF00226C
:100C7C0040214E4800F081FF012202214B4800F038
:100C8C007CFF8FE000220121484800F076FF002213
:100C9C000221464800F071FF00220421434800F075
:100CAC006CFF01220821414800F067FF012210214E
:100CBC003E4800F062FF012220213C4800F05DFF1D
:100CCC0001224021394800F058FF6BE0002201213D
:100CDC00364800F052FF00220221344800F04DFF4C
:100CEC0000220421314800F048FF002208212F483F
:100CFC0000F043FF002210212C4800F03EFF0022A0
:100D0C0020212A4800F039FF00224021274800F01A
:100D1C0034FF47E000220121244800F02EFF00227E
:100D2C000221224800F029FF002204211F4800F074
:100D3C0024FF002208211D4800F01FFF0022202163
:100D4C001A4800F01AFF00224021184800F015FF45
:100D5C0001221021154800F010FF23E0012201218F
:100D6C00124800F00AFF01220221104800F005FF92
:100D7C00012204210D4800F000FF012208210B483C
:100D8C0000F0FBFE01221021084800F0F6FE0122C3
:100D9C002021064800F0F1FE01224021034800F01A
:100DAC00ECFE00BF00BF0837BD4680BD000C014003
:100DBC0080B500AF01220121114800F0DEFE0122B6
:100DCC0002210F4800F0D9FE012204210C4800F04A
:100DDC00D4FE012208210A4800F0CFFE0122102186
:100DEC00074800F0CAFE01222021054800F0C5FE8C
:100DFC0001224021024800F0C0FE00BF80BD00BFB0
:100E0C00000C014080B582B000AF78607B68032B8A
:100E1C0000F2848001A252F823F000BF390E0008C2
:100E2C00750E0008B10E0008ED0E000800224FF4FC
:100E3C0080713D4800F0A1FE01224FF400713A4848
:100E4C0000F09BFE01224FF48061374800F095FEC4
:100E5C0001224FF40061344800F08FFE334B1B68C5
:100E6C001846FFF7F3FD5AE001224FF480712E482B
:100E7C0000F083FE00224FF400712B4800F07DFE41
:100E8C0001224FF48061284800F077FE01224FF4D4
:100E9C000061254800F071FE244B5B681846FFF793
:100EAC00D5FD3CE001224FF480711F4800F065FE37
:100EBC0001224FF400711C4800F05FFE00224FF439
:100ECC008061194800F059FE01224FF40061164868
:100EDC0000F053FE154B9B681846FFF7B7FD1EE05C
:100EEC0001224FF48071104800F047FE01224FF4AC
:100EFC0000710D4800F041FE01224FF480610A4858
:100F0C0000F03BFE00224FF40061074800F035FE74
:100F1C00064BDB681846FFF799FD00E000BF00BFE9
:100F2C000837BD4680BD00BF00080140AC00002062
:100F3C0080B483B000AF786039603B68002B05DC6F
:100F4C00074A7B68002142F8231004E004497B68BF
:100F5C003A6841F8232000BF0C37BD4680BC70476F
:100F6C00AC00002080B500AF00F004FB00F00BF8E3
:100F7C0000F090F800F042F800F0EEF8FFF7B2F94C
:100F8C00FFF7E6FBFAE780B590B000AF07F1180366
:100F9C0028220021184601F0C3FD3B1D00221A60D7
:100FAC005A609A60DA601A610223BB610123BB624A
:100FBC001023FB6200237B6307F11803184600F033
:100FCC00F5FD0346002B01D000F0FAF80F237B60EF
:100FDC000023BB600023FB6000233B6100237B618B
:100FEC003B1D0021184601F063F80346002B01D08D
:100FFC0000F0E6F800BF4037BD4680BD80B586B036
:10100C0000AF07F1080300221A605A609A60DA6098
:10101C003B4600221A605A601D4B4FF080421A600A
:10102C001B4B41F63F725A60194B00229A60184BC9
:10103C000922DA60164B00221A61154B00229A61C4
:10104C00134801F091F90346002B01D000F0B8F8D9
:10105C004FF48053BB6007F1080319460C4801F0AC
:10106C000FFB0346002B01D000F0AAF800233B60D5
:10107C0000237B603B461946054801F0E7FC03461C
:10108C00002B01D000F09CF800BF1837BD4680BD86
:10109C00BC00002080B586B000AF07F10803002229
:1010AC001A605A609A60DA60284B9B69274A43F0B1
:1010BC0004039361254B9B6903F004037B607B68FD
:1010CC00224B9B69214A43F0080393611F4B9B6998
:1010DC0003F008033B603B68002240F6BF711C48DC
:1010EC0000F04BFD00227F211A4800F046FD40F62F
:1010FC00BF73BB600123FB6000233B6102237B6158
:10110C0007F108031946124800F0A4FB7F23BB60CB
:10111C000123FB6000233B6102237B6107F1080381
:10112C0019460C4800F096FB4FF46073BB6000232B
:10113C00FB6001233B6107F108031946054800F0E9
:10114C0089FB00BF1837BD4680BD00BF00100240B0
:10115C0000080140000C014080B500AF0F4801F0C1
:10116C0053F9FFF725FE01224FF6FF710C4800F0F2
:10117C0004FD0C4B01221A604FF4FA71032000F0AD
:10118C0025F84FF47A71042000F020F84FF47A71AE
:10119C00052000F01BF800BF80BD00BFBC00002084
:1011AC0000080140A800002080B582B000AF786034
:1011BC0000F040F8FEF7F8FF00BF0837BD4680BDD1
:1011CC0080B400AF72B600BFFEE7000080B483B0FD
:1011DC0000AF786039603B68094A82FB03129210B9
:1011EC00DB17D21A07497B6841F82320064A7B6833
:1011FC00002142F8231000BF0C37BD4680BC70475D
:10120C00676666662C0100200401002080B483B060
:10121C0000AF7860064A7B6852F82330012B01D16D
:10122C00012300E0002318460C37BD4680BC7047F4
:10123C000401002080B483B000AF00237B601CE06D
:10124C00124A7B6852F82330002B13DD0F4A7B685F
:10125C0052F823305A1E0D497B6841F823200B4A63
:10126C007B6852F82330002B04DC094A7B6801218F
:10127C0042F823107B6801337B607B68092BDFDD30
:10128C0000BF00BF0C37BD4680BC70472C0100204E
:10129C000401002080B485B000AF154B9B69144A43
:1012AC0043F001039361124B9B6903F00103BB6094
:1012BC00BB680F4BDB690E4A43F08053D3610C4B78
:1012CC00DB6903F080537B607B680A4B5B68FB60D7
:1012DC00FB6823F0E063FB60FB6843F08063FB601A
:1012EC00044AFB68536000BF1437BD4680BC70478E
:1012FC00001002400000014080B584B000AF78605F
:10130C007B681B68B3F1804F13D10C4BDB690B4A24
:10131C0043F00103D361094BDB6903F00103FB606C
:10132C00FB68002200211C2000F05DFA1C2000F05C
:10133C0076FA00BF1037BD4680BD00BF00100240DA
:10134C0080B400AFFEE780B400AFFEE780B400AF1E
:10135C00FEE780B400AFFEE780B400AFFEE780B4D8
:10136C0000AF00BFBD4680BC704780B400AF00BF6B
:10137C00BD4680BC704780B400AF00BFBD4680BC8A
:10138C00704780B500AF00F03BF900BF80BD000096
:10139C0080B500AF024801F083F800BF80BD00BFEC
:1013AC00BC00002080B400AF00BFBD4680BC7047BD
:1013BC0080B584B000AFF860B9607A60FB68DBB2CE
:1013CC001A4601210A4800F0D8FBBB68DBB21A466A
:1013DC000221074800F0D1FB7B68DBB21A460421DE
:1013EC00034800F0CAFB00BF1037BD4680BD00BFEC
:1013FC000008014080B584B000AFF860B9607A6035
:10140C00FB68DBB21A4608210A4800F0B6FBBB6841
:10141C00DBB21A461021074800F0AFFB7B68DBB249
:10142C001A462021034800F0A8FB00BF1037BD4628
:10143C0080BD00BF0008014080B582B000AF78606D
:10144C007B68002B0DD07B68012B15D1002201216C
:10145C000C4800F092FB002208210A4800F08DFB9A
:10146C000BE001220121074800F087FB0122082133
:10147C00044800F082FB00E000BF00BF0837BD4607
:10148C0080BD00BF0008014080B582B000AF78601D
:10149C007B68002B0DD07B68012B15D1002202211B
:1014AC000C4800F06AFB002210210A4800F065FB92
:1014BC000BE001220221074800F05FFB0122102102
:1014CC00044800F05AFB00E000BF00BF0837BD46DF
:1014DC0080BD00BF0008014080B582B000AF7860CD
:1014EC007B68002B0DD07B68012B15D100220421C9
:1014FC000C4800F042FB002220210A4800F03DFB82
:10150C000BE001220421074800F037FB01222021C7
:10151C00044800F032FB00E000BF00BF0837BD46B6
:10152C0080BD00BF00080140FFF73CFF0B480C4991
:10153C000C4A002302E0D458C4500433C4188C4223
:10154C00F9D3094A094C002301E013600432A2428A
:10155C00FBD301F0EDFAFFF705FD7047000000200A
:10156C0034000020C82B0008340000205801002053
:10157C00FEE7000080B500AF084B1B68074A43F03C
:10158C0010031360032000F023F90F2000F008F87B
:10159C00FFF780FE0023184680BD00BF00200240EC
:1015AC0080B582B000AF7860124B1A68124B1B7872
:1015BC0019464FF47A73B3FBF1F3B2FBF3F318460D
:1015CC0000F03BF90346002B01D001230EE07B68B1
:1015DC000F2B0AD8002279684FF0FF3000F003F986
:1015EC00064A7B681360002300E001231846083785
:1015FC00BD4680BD28000020300000202C000020BB
:10160C0080B400AF054B1B781A46054B1B6813447E
:10161C00034A136000BFBD4680BC704730000020F9
:10162C005401002080B400AF024B1B681846BD4625
:10163C0080BC70475401002080B485B000AF786046
:10164C007B6803F00703FB600C4BDB68BB60BA687C
:10165C004FF6FF031340BB60FB681A02BB681343D1
:10166C0043F0BF6343F40033BB60044ABB68D360F0
:10167C0000BF1437BD4680BC704700BF00ED00E0D2
:10168C0080B400AF044BDB681B0A03F00703184659
:10169C00BD4680BC704700BF00ED00E080B483B055
:1016AC0000AF0346FB7197F90730002B0BDBFB797E
:1016BC0003F01F02064997F907305B09012000FA75
:1016CC0002F241F8232000BF0C37BD4680BC7047A6
:1016DC0000E100E080B483B000AF03463960FB71D9
:1016EC0097F90730002B0ADB3B68DAB20C4997F903
:1016FC0007301201D2B20B4483F800230AE03B6896
:10170C00DAB20849FB7903F00F03043B1201D2B2A1
:10171C000B441A7600BF0C37BD4680BC704700BF27
:10172C0000E100E000ED00E080B489B000AFF860AB
:10173C00B9607A60FB6803F00703FB61FB69C3F1D6
:10174C000703042B28BF0423BB61FB690433062B5E
:10175C0002D9FB69033B00E000237B614FF0FF32B1
:10176C00BB6902FA03F3DA43BB681A407B699A40FF
:10177C004FF0FF317B6901FA03F3D9437B680B40CF
:10178C00134318462437BD4680BC704780B582B0E1
:10179C0000AF78607B68013BB3F1807F01D30123FC
:1017AC000FE00A4A7B68013B53600F214FF0FF307A
:1017BC00FFF790FF054B00229A60044B07221A603A
:1017CC00002318460837BD4680BD00BF10E000E07E
:1017DC0080B582B000AF78607868FFF72DFF00BF4E
:1017EC000837BD4680BD80B586B000AF0346B960F2
:1017FC007A60FB7300237B61FFF742FF78617A68A4
:10180C00B9687869FFF790FF024697F90F301146D7
:10181C001846FFF75FFF00BF1837BD4680BD80B587
:10182C0082B000AF0346FB7197F907301846FFF7FB
:10183C0035FF00BF0837BD4680BD80B582B000AF14
:10184C0078607868FFF7A2FF034618460837BD4654
:10185C0080BD000080B48BB000AF7860396000238D
:10186C007B6200233B6261E101227B6A02FA03F393
:10187C00FB613B681B68FA691340BB61BA69FB6981
:10188C009A4240F050813B685B68974A93425ED025
:10189C00954A934275D8954A934258D0934A9342AD
:1018AC006FD8934A934252D0914A934269D8914A45
:1018BC0093424CD08F4A934263D88F4A934246D07E
:1018CC008D4A93425DD8122B2AD8122B59D801A2DB
:1018DC0052F823F05B190008351900084719000865
:1018EC00891900088F1900088F1900088F19000832
:1018FC008F1900088F1900088F1900088F1900081C
:10190C008F1900088F1900088F1900088F1900080B
:10191C008F1900088F1900083D190008511900088B
:10192C00764A934213D02CE03B68DB683B6229E09B
:10193C003B68DB6804333B6224E03B68DB680833BC
:10194C003B621FE03B68DB680C333B621AE03B6890
:10195C009B68002B02D104233B6213E03B689B681D
:10196C00012B05D108233B627B68FA691A6109E0F7
:10197C0008233B627B68FA695A6103E000233B62EF
:10198C0000E000BFBB69FF2B01D87B6801E07B68DE
:10199C0004337B61BB69FF2B02D87B6A9B0002E09E
:1019AC007B6A083B9B003B617B691A680F213B6992
:1019BC0001FA03F3DB431A40396A3B6901FA03F37A
:1019CC001A437B691A603B685B6803F08053002BF9
:1019DC0000F0A9804A4B9B69494A43F0010393618B
:1019EC00474B9B6903F00103BB60BB68454A7B6AAC
:1019FC009B08023352F82330FB607B6A03F003032D
:101A0C009B000F2202FA03F3DB43FA681340FB60DE
:101A1C007B683D4A93420DD07B683C4A934207D089
:101A2C007B683B4A934201D1022304E0032302E08A
:101A3C00012300E000237A6A02F003029200934033
:101A4C00FA681343FB602F497B6A9B080233FA68E0
:101A5C0041F823203B685B6803F48013002B06D00D
:101A6C002C4B9A682B49BB6913438B6006E0294BBE
:101A7C009A68BB69DB43274913408B603B685B6802
:101A8C0003F40013002B06D0224BDA682149BB6902
:101A9C001343CB6006E01F4BDA68BB69DB431D497F
:101AAC001340CB603B685B6803F40033002B06D01B
:101ABC00184B5A681749BB6913434B6006E0154B2A
:101ACC005A68BB69DB43134913404B603B685B6846
:101ADC0003F48033002B1FD00E4B1A680D49BB69E1
:101AEC0013430B601FE000BF0000321000003110E8
:101AFC000000221000002110000012100000111034
:101B0C00001002400000014000080140000C0140A0
:101B1C0000100140000401400B4B1A68BB69DB4309
:101B2C00094913400B607B6A01337B623B681A687E
:101B3C007B6A22FA03F3002B7FF496AE00BF00BF42
:101B4C002C37BD4680BC70470004014080B485B082
:101B5C0000AF78600B467B807B689A687B8813406B
:101B6C00002B02D00123FB7301E00023FB73FB7BF2
:101B7C0018461437BD4680BC704780B483B000AFA4
:101B8C0078600B467B8013467B707B78002B03D0F0
:101B9C007A887B681A6103E07B881A047B681A6177
:101BAC0000BF0C37BD4680BC7047000080B586B0C6
:101BBC0000AF78607B68002B01D1012372E27B6857
:101BCC001B6803F00103002B00F08780924B5B68CD
:101BDC0003F00C03042B0CD08F4B5B6803F00C034D
:101BEC00082B12D18C4B5B6803F48033B3F5803F28
:101BFC000BD1894B1B6803F40033002B6CD07B6832
:101C0C005B68002B68D101234CE27B685B68B3F501
:101C1C00803F06D1804B1B687F4A43F480331360AE
:101C2C002EE07B685B68002B0CD17B4B1B687A4ADF
:101C3C0023F480331360784B1B68774A23F480239A
:101C4C0013601DE07B685B68B3F5A02F0CD1724B61
:101C5C001B68714A43F4802313606F4B1B686E4AF8
:101C6C0043F4803313600BE06B4B1B686A4A23F41C
:101C7C0080331360684B1B68674A23F4802313601E
:101C8C007B685B68002B13D0FFF7CCFC386108E055
:101C9C00FFF7C8FC02463B69D31A642B01D9032316
:101CAC0000E25D4B1B6803F40033002BF0D014E012
:101CBC00FFF7B8FC386108E0FFF7B4FC02463B695B
:101CCC00D31A642B01D90323ECE1534B1B6803F4A7
:101CDC000033002BF0D100E000BF7B681B6803F0E1
:101CEC000203002B63D04C4B5B6803F00C03002BFE
:101CFC000BD0494B5B6803F00C03082B1CD1464BF3
:101D0C005B6803F48033002B16D1434B1B6803F044
:101D1C000203002B05D07B681B69012B01D001232A
:101D2C00C0E13D4B1B6823F0F8027B685B69DB006C
:101D3C00394913430B603AE07B681B69002B20D0B8
:101D4C00364B01221A60FFF76DFC386108E0FFF793
:101D5C0069FC02463B69D31A022B01D90323A1E18A
:101D6C002D4B1B6803F00203002BF0D02A4B1B6891
:101D7C0023F0F8027B685B69DB00274913430B6097
:101D8C0015E0264B00221A60FFF74CFC386108E086
:101D9C00FFF748FC02463B69D31A022B01D90323F7
:101DAC0080E11D4B1B6803F00203002BF0D17B6814
:101DBC001B6803F00803002B3AD07B689B69002B4F
:101DCC0019D0174B01221A60FFF72CFC386108E080
:101DDC00FFF728FC02463B69D31A022B01D90323D7
:101DEC0060E10D4B5B6A03F00203002BF0D0012085
:101DFC0000F09CFA1CE00A4B00221A60FFF712FC60
:101E0C0038610FE0FFF70EFC02463B69D31A022B38
:101E1C0008D9032346E100BF0010024000004242F3
:101E2C0080044242924B5B6A03F00203002BE9D11F
:101E3C007B681B6803F00403002B00F0A6800023D2
:101E4C00FB758B4BDB6903F08053002B0DD1884B5A
:101E5C00DB69874A43F08053D361854BDB6903F020
:101E6C008053BB60BB680123FB75824B1B6803F47A
:101E7C008073002B18D17F4B1B687E4A43F4807310
:101E8C001360FFF7CFFB386108E0FFF7CBFB02468E
:101E9C003B69D31A642B01D9032303E1754B1B68EF
:101EAC0003F48073002BF0D07B68DB68012B06D128
:101EBC006F4B1B6A6E4A43F0010313622DE07B6883
:101ECC00DB68002B0CD16A4B1B6A694A23F00103B7
:101EDC001362674B1B6A664A23F0040313621CE00F
:101EEC007B68DB68052B0CD1614B1B6A604A43F0A5
:101EFC00040313625E4B1B6A5D4A43F001031362D9
:101F0C000BE05B4B1B6A5A4A23F001031362584BDC
:101F1C001B6A574A23F0040313627B68DB68002BAF
:101F2C0015D0FFF77FFB38610AE0FFF77BFB024619
:101F3C003B69D31A41F28832934201D90323B1E0B1
:101F4C004B4B1B6A03F00203002BEED014E0FFF79F
:101F5C0069FB38610AE0FFF765FB02463B69D31A5F
:101F6C0041F28832934201D903239BE0404B1B6A18
:101F7C0003F00203002BEED1FB7D012B05D13C4B72
:101F8C00DB693B4A23F08053D3617B68DB69002B10
:101F9C0000F08780364B5B6803F00C03082B61D094
:101FAC007B68DB69022B46D1334B00221A60FFF7AA
:101FBC0039FB386108E0FFF735FB02463B69D31A61
:101FCC00022B01D903236DE0294B1B6803F000732E
:101FDC00002BF0D17B681B6AB3F5803F08D1244BF2
:101FEC005B6823F400327B689B68214913434B6088
:101FFC001F4B5B6823F474127B68196A7B685B6AFD
:10200C000B431B4913434B601B4B01221A60FFF718
:10201C0009FB386108E0FFF705FB02463B69D31A60
:10202C00022B01D903233DE0114B1B6803F0007315
:10203C00002BF0D035E0104B00221A60FFF7F2FABB
:10204C00386108E0FFF7EEFA02463B69D31A022B1F
:10205C0001D9032326E0064B1B6803F00073002B09
:10206C00F0D11EE07B68DB69012B07D1012319E05D
:10207C000010024000700040600042420B4B5B6855
:10208C00FB60FB6803F480327B681B6A9A4206D1C2
:10209C00FB6803F470127B685B6A9A4201D00123DF
:1020AC0000E0002318461837BD4680BD00100240E2
:1020BC0080B584B000AF786039607B68002B01D1AB
:1020CC000123D0E06A4B1B6803F007033A689A427D
:1020DC0010D9674B1B6823F0070265493B68134313
:1020EC000B60634B1B6803F007033A689A4201D0FC
:1020FC000123B8E07B681B6803F00203002B20D09F
:10210C007B681B6803F00403002B05D0594B5B68FC
:10211C00584A43F4E06353607B681B6803F0080380
:10212C00002B05D0534B5B68524A43F46053536009
:10213C00504B5B6823F0F0027B689B684D4913435E
:10214C004B607B681B6803F00103002B40D07B685D
:10215C005B68012B07D1474B1B6803F40033002B42
:10216C0015D101237FE07B685B68022B07D1414BC3
:10217C001B6803F00073002B09D1012373E03D4B66
:10218C001B6803F00203002B01D101236BE0394BD8
:10219C005B6823F003027B685B68364913434B6032
:1021AC00FFF740FAF8600AE0FFF73CFA0246FB68DA
:1021BC00D31A41F28832934201D9032353E02D4BB9
:1021CC005B6803F00C027B685B689B009A42EBD166
:1021DC00274B1B6803F007033A689A4210D2244B32
:1021EC001B6823F0070222493B6813430B60204B0A
:1021FC001B6803F007033A689A4201D0012332E0CE
:10220C007B681B6803F00403002B08D0194B5B6838
:10221C0023F4E0627B68DB68164913434B607B68F0
:10222C001B6803F00803002B09D0124B5B6823F4E6
:10223C0060527B681B69DB000E4913434B6000F056
:10224C0021F802460B4B5B681B0903F00F030A498C
:10225C00CB5C22FA03F3094A1360094B1B6818463E
:10226C00FFF79EF9002318461037BD4680BD00BF0E
:10227C0000200240001002409C2B00082800002087
:10228C002C00002080B487B000AF0023FB6000233B
:10229C00BB6000237B6100237B6000233B611E4BF2
:1022AC005B68FB60FB6803F00C03042B02D0082B6B
:1022BC0003D027E0194B3B6127E0FB689B0C03F034
:1022CC000F03174AD35C7B60FB6803F48033002B4D
:1022DC0010D0114B5B685B0C03F00103114AD35C0B
:1022EC00BB607B680D4A03FB02F2BB68B2FBF3F3E5
:1022FC007B6104E07B680C4A02FB03F37B617B6926
:10230C003B6102E0054B3B6100BF3B6918461C3743
:10231C00BD4680BC704700BF0010024000127A001E
:10232C00AC2B0008BC2B000800093D0080B485B024
:10233C0000AF78600A4B1B680A4AA2FB03235B0AB6
:10234C007A6802FB03F3FB6000BFFB685A1EFA605D
:10235C00002BF9D100BF00BF1437BD4680BC7047BD
:10236C0028000020D34D621080B582B000AF786099
:10237C007B68002B01D1012341E07B6893F83D3051
:10238C00DBB2002B06D17B68002283F83C207868F6
:10239C00FEF7B2FF7B68022283F83D207B681A6847
:1023AC007B6804331946104600F056FA7B6801220C
:1023BC0083F846207B68012283F83E207B6801224B
:1023CC0083F83F207B68012283F840207B68012240
:1023DC0083F841207B68012283F842207B6801222C
:1023EC0083F843207B68012283F844207B68012218
:1023FC0083F845207B68012283F83D200023184692
:10240C000837BD4680BD000080B485B000AF786051
:10241C007B6893F83D30DBB2012B01D0012335E012
:10242C007B68022283F83D207B681B68DA687B6836
:10243C001B6842F00102DA607B681B68164A934203
:10244C0009D07B681B68B3F1804F04D07B681B6894
:10245C00124A934211D17B681B689B6803F00703F7
:10246C00FB60FB68062B10D07B681B681A687B68C6
:10247C001B6842F001021A6007E07B681B681A684F
:10248C007B681B6842F001021A600023184614375F
:10249C00BD4680BC704700BF002C014000040040CA
:1024AC0080B584B000AF78607B681B68DB68FB602C
:1024BC007B681B681B69BB60BB6803F00203002BC5
:1024CC0020D0FB6803F00203002B1BD07B681B6839
:1024DC006FF002021A617B6801221A777B681B6815
:1024EC009B6903F00303002B03D0786800F098F984
:1024FC0005E0786800F08BF9786800F09AF97B6851
:10250C0000221A77BB6803F00403002B20D0FB6871
:10251C0003F00403002B1BD07B681B686FF00402D4
:10252C001A617B6802221A777B681B689B6903F42B
:10253C004073002B03D0786800F072F905E07868DE
:10254C0000F065F9786800F074F97B6800221A775E
:10255C00BB6803F00803002B20D0FB6803F00803D2
:10256C00002B1BD07B681B686FF008021A617B681C
:10257C0004221A777B681B68DB6903F00303002BCA
:10258C0003D0786800F04CF905E0786800F03FF96A
:10259C00786800F04EF97B6800221A77BB6803F06C
:1025AC001003002B20D0FB6803F01003002B1BD072
:1025BC007B681B686FF010021A617B6808221A771F
:1025CC007B681B68DB6903F44073002B03D07868CD
:1025DC0000F026F905E0786800F019F9786800F049
:1025EC0028F97B6800221A77BB6803F00103002BE3
:1025FC000CD0FB6803F00103002B07D07B681B6831
:10260C006FF001021A617868FEF7CEFDBB6803F02B
:10261C008003002B0CD0FB6803F08003002B07D049
:10262C007B681B686FF080021A61786800F06FFAA3
:10263C00BB6803F04003002B0CD0FB6803F0400395
:10264C00002B07D07B681B686FF040021A6178681A
:10265C0000F0F8F8BB6803F02003002B0CD0FB68EB
:10266C0003F02003002B07D07B681B686FF020025F
:10267C001A61786800F042FA00BF1037BD4680BD81
:10268C0080B584B000AF786039600023FB737B6841
:10269C0093F83C30012B01D10223B4E07B6801227A
:1026AC0083F83C207B68022283F83D207B681B6802
:1026BC009B68BB60BB6823F07703BB60BB6823F4EB
:1026CC007F43BB607B681B68BA689A603B681B6879
:1026DC00B3F5005F3ED0B3F5005F00F28780B3F531
:1026EC00805F00F08680B3F5805F7FD8702B1AD0A6
:1026FC00702B7BD8602B50D0602B77D8502B3CD0D4
:10270C00502B73D8402B58D0402B6FD8302B64D023
:10271C00302B6BD8202B60D0202B67D8002B5CD0B3
:10272C00102B5AD062E07B6818683B6899683B684C
:10273C005A683B68DB6800F06AF97B681B689B6829
:10274C00BB60BB6843F07703BB607B681B68BA68EF
:10275C009A604FE07B6818683B6899683B685A68D8
:10276C003B68DB6800F053F97B681B689A687B68F0
:10277C001B6842F480429A603CE07B6818683B68B6
:10278C0059683B68DB681A4600F0CAF87B681B681E
:10279C005021184600F021F92CE07B6818683B6842
:1027AC0059683B68DB681A4600F0E8F87B681B68E0
:1027BC006021184600F011F91CE07B6818683B6832
:1027CC0059683B68DB681A4600F0AAF87B681B68FE
:1027DC004021184600F001F90CE07B681A683B6850
:1027EC001B681946104600F0F8F803E00123FB7350
:1027FC0000E000BF7B68012283F83D207B6800224B
:10280C0083F83C20FB7B18461037BD4680BD80B456
:10281C0083B000AF786000BF0C37BD4680BC7047FA
:10282C0080B483B000AF786000BF0C37BD4680BC6D
:10283C00704780B483B000AF786000BF0C37BD46E2
:10284C0080BC704780B483B000AF786000BF0C3799
:10285C00BD4680BC7047000080B485B000AF786086
:10286C0039607B681B68FB607B682B4A934207D0FE
:10287C007B68B3F1804F03D07B68284A934208D120
:10288C00FB6823F07003FB603B685B68FA681343DA
:10289C00FB607B68204A934207D07B68B3F1804F82
:1028AC0003D07B681D4A934208D1FB6823F4407324
:1028BC00FB603B68DB68FA681343FB60FB6823F042
:1028CC0080023B685B691343FB607B68FA681A60A3
:1028DC003B689A687B68DA623B681A687B689A6224
:1028EC007B680D4A934203D13B681A697B681A6373
:1028FC007B6801225A617B681B6903F00103002B82
:10290C0005D07B681B6923F001027B681A6100BF4C
:10291C001437BD4680BC7047002C014000040040B9
:10292C0080B487B000AFF860B9607A60FB681B6A4E
:10293C007B61FB681B6A23F00102FB681A62FB686F
:10294C009B693B613B6923F0F0033B617B681B0196
:10295C003A6913433B617B6923F00A037B617A6913
:10296C00BB6813437B61FB683A699A61FB687A69BF
:10297C001A6200BF1C37BD4680BC704780B487B05C
:10298C0000AFF860B9607A60FB681B6A7B61FB681A
:10299C001B6A23F01002FB681A62FB689B693B619F
:1029AC003B6923F470433B617B681B033A69134317
:1029BC003B617B6923F0A0037B61BB681B017A69D7
:1029CC0013437B61FB683A699A61FB687A691A6206
:1029DC0000BF1C37BD4680BC704780B485B000AFCB
:1029EC00786039607B689B68FB60FB6823F0700340
:1029FC00FB603A68FB68134343F00703FB607B689A
:102A0C00FA689A6000BF1437BD4680BC704780B42A
:102A1C0087B000AFF860B9607A603B60FB689B6878
:102A2C007B617B6923F47F437B613B681A027B6883
:102A3C001A43BB6813437A6913437B61FB687A6959
:102A4C009A6000BF1C37BD4680BC704780B485B00F
:102A5C0000AF786039607B6893F83C30012B01D172
:102A6C00022341E07B68012283F83C207B68022230
:102A7C0083F83D207B681B685B68FB607B681B6888
:102A8C009B68BB60FB6823F07003FB603B681B68B2
:102A9C00FA681343FB607B681B68FA685A607B68B2
:102AAC001B68144A934209D07B681B68B3F1804FB2
:102ABC0004D07B681B68104A93420CD1BB6823F08E
:102ACC008003BB603B685B68BA681343BB607B6880
:102ADC001B68BA689A607B68012283F83D207B688A
:102AEC00002283F83C20002318461437BD4680BCD6
:102AFC00704700BF002C01400004004080B483B03C
:102B0C0000AF786000BF0C37BD4680BC704780B406
:102B1C0083B000AF786000BF0C37BD4680BC7047F7
:102B2C0003460244934200D1704703F8011BF9E7B6
:102B3C0070B500260C4D0D4C641BA410A64209D197
:102B4C0000F01AF800260A4D0A4C641BA410A64289
:102B5C0005D170BD55F8043B98470136EEE755F8A2
:102B6C00043B98470136F2E7C02B0008C02B000845
:102B7C00C02B0008C42B0008F8B500BFF8BC08BC7B
:102B8C009E467047F8B500BFF8BC08BC9E4670471F
:102B9C000000000000000000010203040607080901
:102BAC0002030405060708090A0B0C0D0E0F101082
:042BBC000102000012
:042BC00031010008D7
:042BC4000D010008F7
:102BC800000C0140000C0140000C01408000000195
:102BD80000020000050000000500000005000000DC
:102BE800020000000300000000127A00100000003C
:042BF80001000000D8
:0400000508001535A5
:00000001FF
