:020000040800F2
:1000000000280020991B0008B1190008B719000842
:10001000BD190008C3190008C91900080000000034
:10002000000000000000000000000000CF190008E0
:10003000DB19000800000000E7190008F3190008A8
:10004000E11B0008E11B0008E11B0008E11B0008A0
:10005000E11B0008E11B0008E11B0008E11B000890
:10006000E11B0008E11B0008E11B0008E11B000880
:10007000E11B0008E11B0008E11B0008E11B000870
:10008000E11B0008E11B0008E11B0008E11B000860
:10009000E11B0008E11B0008E11B0008E11B000850
:1000A000E11B0008E11B0008E11B0008E11B000840
:1000B000011A0008E11B000800000000E11B000815
:1000C000E11B00080000000000000000E11B000828
:1000D00000000000E11B0008E11B00080000000018
:1000E000E11B0008E11B0008E11B00080000000004
:1000F0000000000000000000000000000000000000
:0C01000000000000000000005FF808F1A3
:10010C0010B5054C237833B9044B13B10448AFF345
:10011C0000800123237010BD34000020000000007B
:10012C001832000808B5034B1BB103490348AFF361
:10013C00008008BD000000003800002018320008C4
:10014C0080B483B000AF7860094A7B6852F82330E2
:10015C00012B06D1064A7B68002142F823100123AB
:10016C0000E0002318460C37BD4680BC704700BF2A
:10017C005000002080B483B000AF7860094A7B68DF
:10018C0052F82330012B06D1064A7B68002142F835
:10019C002310012300E0002318460C37BD4680BC19
:1001AC00704700BF5C00002080B582B000AF002318
:1001BC007B607CE0424A7B6852F8232041497B6893
:1001CC0041F82320404A7B6852F823203C497B6845
:1001DC0041F823203D4A7B6852F823203C497B6838
:1001EC0031F813301946104601F0E2FF0346194668
:1001FC00354A7B6842F82310324A7B6852F8232038
:10020C002F497B6851F823309A424DD12C4A7B6898
:10021C0052F823202C497B6851F823309A4243D161
:10022C002C4A7B6852F8232027497B6851F82330ED
:10023C009A4219D0244A7B6852F8232025497B68BE
:10024C0041F82320204A7B6852F82330002B2BD115
:10025C00214A7B68012142F82310204A7B684FF425
:10026C00967142F823101FE01C4A7B6852F8233029
:10027C005A1E1A497B6841F82320184A7B6852F8A9
:10028C002330002B10DC154A7B684FF4967142F832
:10029C002310104A7B6852F82330002B04D1104AEB
:1002AC007B68012142F823107B6801337B607B68FB
:1002BC00022B7FF77FAF00BF00BF0837BD4680BD64
:1002CC007400002068000020800000200000002046
:1002DC000C0000208C000020500000209800002012
:1002EC005C00002080B500AFC74B1B68013B042BA2
:1002FC0000F2A98201A252F823F000BF1D030008EE
:10030C00EB030008D90400082D0600081B070008A1
:10031C00002001F0C3FB002001F0E8FB002001F0FD
:10032C000DFCB94B02221A6041F28831002001F019
:10033C007FFAB64B1B684FF47A7202FB03F3194633
:10034C00012001F075FAB24B1B684FF47A7202FB74
:10035C0003F31946022001F06BFAAE4B00221A602F
:10036C00AC4B00225A60AB4B00229A60A74B1B6827
:10037C00A94A82FB03129210DB17D31A19460020EC
:10038C0001F006F9A14B1A68A34B83FB02139910D9
:10039C00D317C91A0B469B000B445B00D11A0120E2
:1003AC0001F0F6F89A4B1B689B4A82FB03129210E1
:1003BC00DB17D31A1946022001F0EAF8944B1A689D
:1003CC00954B83FB02139910D317C91A0B469B004C
:1003DC000B445B00D11A032001F0DAF83CE2012255
:1003EC000121002001F016FB00220121012001F067
:1003FC0033FB022001F03CFA0346012B28D1824B3F
:10040C0003221A60854B1B684FF47A7202FB03F3CC
:10041C001946022001F00CFA804B1B687E4A82FBC5
:10042C0003129210DB17D31A1946022001F0B0F810
:10043C007A4B1A68784B83FB02139910D317C91A9D
:10044C000B469B000B445B00D11A032001F0A0F873
:10045C000020FFF775FE0346012B17D16A4B0D22C6
:10046C001A604FF4FA71032001F0E2F90021002028
:10047C0001F08EF80121012001F08AF80021022000
:10048C0001F086F80121032001F082F80220FFF729
:10049C0057FE0346012B40F0D8815B4B09221A60B2
:1004AC004FF4FA71032001F0C3F90021002001F090
:1004BC006FF80021012001F06BF80021022001F0FF
:1004CC0067F80021032001F063F8BEE1012201214D
:1004DC00002001F09FFA01220021012001F0BCFA5A
:1004EC00022001F0C5F90346012B4ED1464B0422E4
:1004FC001A60474B1B684FF47A7202FB03F31946E0
:10050C00012001F095F9414B1B684FF47A7202FB04
:10051C0003F31946022001F08BF93D4B1B683E4A50
:10052C0082FB03129210DB17D31A1946002001F03C
:10053C002FF8374B1A68384B83FB02139910D317DB
:10054C00C91A0B469B000B445B00D11A012001F029
:10055C001FF82E4B1B68304A82FB03129210DB17DC
:10056C00D31A1946022001F013F8284B1A682A4BAB
:10057C0083FB02139910D317C91A0B469B000B442B
:10058C005B00D11A032001F003F80020FFF7D8FD1F
:10059C000346012B17D11C4B0D221A604FF4FA7134
:1005AC00032001F045F90021002000F0F1FF0121AA
:1005BC00012000F0EDFF0021022000F0E9FF0121F5
:1005CC00032000F0E5FF0220FFF7BAFD0346012BE4
:1005DC0040F03D810C4B09221A604FF4FA71032054
:1005EC0001F026F90021002000F0D2FF00210120AB
:1005FC0000F0CEFF0021022000F0CAFF00210320F2
:10060C0000F0C6FF23E100BFB00000201C0000205A
:10061C002400002050000020676666662000002041
:10062C0000220121012001F0F5F901220121002015
:10063C0001F012FA012001F01BF90346012B28D11D
:10064C00AA4B05221A60AA4B1B684FF47A7202FB64
:10065C0003F31946012001F0EBF8A54B1B68A54AE2
:10066C0082FB03129210DB17D31A1946002000F0FC
:10067C008FFF9F4B1A689F4B83FB02139910D31764
:10068C00C91A0B469B000B445B00D11A012000F0E9
:10069C007FFF0020FFF754FD0346012B17D1934B2E
:1006AC000D221A604FF4FA71032001F0C1F80021F9
:1006BC00002000F06DFF0121012000F069FF0021F6
:1006CC00022000F065FF0121032000F061FF0220F1
:1006DC00FFF736FD0346012B40F0BB80834B09220C
:1006EC001A604FF4FA71032001F0A2F800210020E7
:1006FC0000F04EFF0021012000F04AFF00210220F3
:10070C0000F046FF0021032000F042FFA1E001228F
:10071C000021012001F07EF901220121002001F0CD
:10072C009BF9012001F0A4F80346012B4ED16F4B2D
:10073C0002221A60704B1B684FF47A7202FB03F3AF
:10074C001946012001F074F86C4B1B684FF47A7257
:10075C0002FB03F31946022001F06AF8664B1B6892
:10076C00644A82FB03129210DB17D31A194600203D
:10077C0000F00EFF604B1A685E4B83FB021399105E
:10078C00D317C91A0B469B000B445B00D11A0120EE
:10079C0000F0FEFE594B1B68564A82FB0312921066
:1007AC00DB17D31A1946022000F0F2FE534B1A68DD
:1007BC00504B83FB02139910D317C91A0B469B009D
:1007CC000B445B00D11A032000F0E2FE0020FFF77F
:1007DC00B7FC0346012B17D1444B0D221A604FF482
:1007EC00FA71032001F024F80021002000F0D0FE63
:1007FC000121012000F0CCFE0021022000F0C8FEF7
:10080C000121032000F0C4FE0220FFF799FC0346EF
:10081C00012B20D1354B09221A604FF4FA710320B9
:10082C0001F006F80021002000F0B2FE00210120AA
:10083C0000F0AEFE0021022000F0AAFE00210320F1
:10084C0000F0A6FE07E000BF06E000BF04E000BF1A
:10085C0002E000BF00E000BF244B1B68022B0BD052
:10086C00224B1B68032B07D0204B1B68042B03D097
:10087C001E4B1B68052B36D1032000F0F9FF0346F5
:10088C00012B17D11E4B1B685A1C1D490A601846B8
:10089C0000F0E8FD1A4B1B685A4203F0030302F008
:1008AC00030258BF5342164A13604FF4FA710320E7
:1008BC0000F0BEFF042000F0DBFF0346012B12D139
:1008CC00104B5B68013B1946012000F061FE0D4B9B
:1008DC00DB68013B1946032000F05AFE4FF47A7195
:1008EC00042000F0A5FF00BF80BD00BFB0000020B9
:1008FC0020000020676666661C0000202400002093
:10090C00B4000020B800002080B500AF814B1B68FC
:10091C000A3B032B00F2408201A252F823F000BFE5
:10092C00C5090008410B00089B0C00083D09000894
:10093C00794B00221A60794B00221A60784B002206
:10094C001A60744B0A221A60002001F0A7F80020EC
:10095C0001F0CCF8002001F0F1F84FF4FA7103200B
:10096C0000F066FF4FF4FA71042000F061FF6D4B4C
:10097C001B686D4A82FB03129210DB17D31A1946BF
:10098C00002000F005FE674B1A68674B83FB0213CF
:10099C009910D317C91A0B469B000B445B00D11A54
:1009AC00012000F0F5FD0021022000F0F1FD0221F4
:1009BC00032000F0EDFDF6E10020FFF7C1FB03463C
:1009CC00012B2CD1534B0B221A60002001F066F83E
:1009DC00012001F08BF8554B1B68534A82FB031224
:1009EC009210DB17D31A1946002000F0D1FD4F4BA3
:1009FC001A684D4B83FB02139910D317C91A0B4677
:100A0C009B000B445B00D11A012000F0C1FD0021BA
:100A1C00022000F0BDFD0321032000F0B9FD0120F0
:100A2C00FFF78EFB0346012B32D13B4B1B68013386
:100A3C00394A1360384B1A683A4B1B681344632BC2
:100A4C0004DD384B1B685B42334A1360324B1A6827
:100A5C00344B1B681344344A82FB03129210DB178D
:100A6C00D31A1946002000F093FD2B4B1A682D4B1E
:100A7C001B681A442C4B83FB02139910D317C91A09
:100A8C000B469B000B445B00D11A012000F080FD4B
:100A9C000220FFF755FB0346012B25D1214B1A6889
:100AAC001D4B1B6813441F4A13601B4B00221A601A
:100ABC001C4B1B681C4A82FB03129210DB17D31AC7
:100ACC001946002000F064FD164B1A68164B83FB88
:100ADC0002139910D317C91A0B469B000B445B00E9
:100AEC00D11A012000F054FD042000F0C1FE034691
:100AFC00012B40F0538101210D4801F088FB0821A6
:100B0C000B4801F084FB4FF4FA71042000F090FEC6
:100B1C0044E100BFB0000020A4000020A800002089
:100B2C00AC0000201C0000206766666620000020D8
:100B3C00000801400020FFF703FB0346012B2CD1DA
:100B4C00A94B0C221A60002000F0D0FF012000F00D
:100B5C00F5FFA64B1B68A64A82FB03129210DB170B
:100B6C00D31A1946002000F013FDA04B1A68A04BB5
:100B7C0083FB02139910D317C91A0B469B000B4425
:100B8C005B00D11A012000F003FD0021022000F0CF
:100B9C00FFFC0421032000F0FBFC0120FFF7D0FA3E
:100BAC000346012B32D1934B1B680133914A1360DE
:100BBC00904B1A68904B1B681344632B04DD8E4BCF
:100BCC001B685B428B4A13608A4B1A688A4B1B6802
:100BDC001344874A82FB03129210DB17D31A19466F
:100BEC00002000F0D5FC834B1A68834B1B681A4419
:100BFC007F4B83FB02139910D317C91A0B469B002A
:100C0C000B445B00D11A012000F0C2FC0220FFF75C
:100C1C0097FA0346012B25D1774B1A68754B1B6845
:100C2C001344754A1360734B00221A60724B1B6895
:100C3C006F4A82FB03129210DB17D31A194600205D
:100C4C0000F0A6FC6C4B1A68694B83FB02139910DD
:100C5C00D317C91A0B469B000B445B00D11A012019
:100C6C0000F096FC042000F003FE0346012B40F03C
:100C7C0097800221614801F0CAFA10215F4801F007
:100C8C00C6FA4FF4FA71042000F0D2FD88E000207F
:100C9C00FFF756FA0346012B05D1002000F04EFF5A
:100CAC00514B01221A600120FFF74AFA0346012B2F
:100CBC0032D1534B1B680133514A1360504B1A68A5
:100CCC004A4B1B681344632B04DD484B1B685B4287
:100CDC004B4A13604A4B1A68444B1B681344444AF2
:100CEC0082FB03129210DB17D31A1946002000F076
:100CFC004FFC434B1A683D4B1B681A443C4B83FB1F
:100D0C0002139910D317C91A0B469B000B445B00B6
:100D1C00D11A012000F03CFC0220FFF711FA034627
:100D2C00012B25D1314B1A68354B1B6813442F4AC4
:100D3C001360334B00221A602C4B1B682C4A82FB2D
:100D4C0003129210DB17D31A1946002000F020FC76
:100D5C00264B1A68264B83FB02139910D317C91A1A
:100D6C000B469B000B445B00D11A012000F010FCD9
:100D7C00042000F07DFD0346012B13D104211F48F4
:100D8C0001F045FA20211D4801F041FA4FF4FA71A7
:100D9C00042000F04DFD05E000BF04E000BF02E0C0
:100DAC0000BF00E000BF032000F062FD0346012BF2
:100DBC0017D1144B1B685A1C12490A60184600F0D4
:100DCC0051FB104B1B685A4203F0030302F0030261
:100DDC0058BF53420B4A13604FF4FA71032000F0D2
:100DEC0027FD00BF80BD00BFB00000202400002004
:100DFC0067666666A80000202000002000080140FD
:100E0C00AC000020B400002080B500AFA24B1B68E2
:100E1C00092B08D0092B00F31781072B3DD0082B89
:100E2C0000F0A48010E1002000F038FE002000F05B
:100E3C005DFE002000F082FE984B1B684FF47A7226
:100E4C0002FB03F31946062000F0F2FC0020FFF72A
:100E5C0077F90346012B02D18F4B07221A60012030
:100E6C00FFF76EF90346012B02D18B4B08221A6057
:100E7C00002000F0FDFC0346012B40F0E780864B80
:100E8C0001221A60864B1B684FF47A7202FB03F343
:100E9C001946002000F0CCFCD8E0012201210020F2
:100EAC0000F0B8FD00220121012000F0D5FD012049
:100EBC00FFF746F90346012B02D1774B08221A6043
:100ECC000020FFF757F90346012B02D1724B012288
:100EDC001A60062000F0CCFC0346012B40F0B880D1
:100EEC006D4B01221A606D4B1B684FF47A7202FB3A
:100EFC0003F31946062000F09BFC684B1B68694AFB
:100F0C0082FB03129210DB17D31A1946002000F053
:100F1C003FFB624B1A68634B83FB02139910D31788
:100F2C00C91A0B469B000B445B00D11A012000F040
:100F3C002FFB5A4B1B685B4A82FB03129210DB1788
:100F4C00D31A1946022000F023FB544B1A68554B58
:100F5C0083FB02139910D317C91A0B469B000B4441
:100F6C005B00D11A032000F013FB71E00022012179
:100F7C00012000F04FFD01220121002000F06CFD4A
:100F8C000020FFF7DDF80346012B02D1424B07226C
:100F9C001A600120FFF7EEF80346012B05D006205E
:100FAC0000F066FC0346012B02D13B4B01221A6078
:100FBC00062000F05DFC0346012B4BD1364B012281
:100FCC001A60364B1B684FF47A7202FB03F3194616
:100FDC00062000F02DFC314B1B68324A82FB0312B9
:100FEC009210DB17D31A1946002000F0D1FA2B4BC4
:100FFC001A682C4B83FB02139910D317C91A0B4692
:10100C009B000B445B00D11A012000F0C1FA234B6A
:10101C001B68244A82FB03129210DB17D31A194661
:10102C00022000F0B5FA1D4B1A681E4B83FB02130D
:10103C009910D317C91A0B469B000B445B00D11AAD
:10104C00032000F0A5FA05E000BF04E000BF02E0B9
:10105C0000BF00E000BF032000F00AFC0346012B98
:10106C0017D1114B1B685A1C0F490A60184600F027
:10107C00F9F90D4B1B685A4203F0030302F003020B
:10108C0058BF5342084A13604FF4FA71032000F022
:10109C00CFFB00BF80BD00BFB000002018000020B7
:1010AC001400002067666666B400002080B582B02C
:1010BC0000AF78607B68092B00F2808101A252F8A6
:1010CC0023F000BFF9100008411100088911000835
:1010DC00D11100081912000861120008A9120008A9
:1010EC00F1120008391300088113000800220121B5
:1010FC00C64801F074F800220221C44801F06FF8D0
:10110C0000220421C14801F06AF800220821BF48DE
:10111C0001F065F800221021BC4801F060F80022B3
:10112C002021BA4801F05BF801224021B74801F0B8
:10113C0056F867E100220221B44801F050F8002271
:10114C000421B24801F04BF801220121AF4801F013
:10115C0046F801220821AD4801F041F80122102186
:10116C00AA4801F03CF801222021A84801F037F8E8
:10117C0001224021A54801F032F843E1002201216F
:10118C00A24801F02CF800220221A04801F027F817
:10119C00002208219D4801F022F8002210219B48D2
:1011AC0001F01DF800224021984801F018F80122A6
:1011BC000421964801F013F801222021934801F0F4
:1011CC000EF81FE100220121904801F008F80022DE
:1011DC0002218E4801F003F8002204218B4800F014
:1011EC00FEFF00220821894800F0F9FF002240216F
:1011FC00864800F0F4FF01221021844800F0EFFF34
:10120C0001222021814800F0EAFFFBE000220221AC
:10121C007E4800F0E4FF002204217C4800F0DFFF50
:10122C0000222021794800F0DAFF00224021774883
:10123C0000F0D5FF01220121744800F0D0FF0122FB
:10124C000821724800F0CBFF012210216F4800F0FA
:10125C00C6FFD7E0002201216C4800F0C0FF00223D
:10126C0004216A4800F0BBFF00220821674800F007
:10127C00B6FF00222021654800F0B1FF002240217A
:10128C00624800F0ACFF01220221604800F0A7FF89
:10129C00012210215D4800F0A2FFB3E000220121E1
:1012AC005A4800F09CFF00220421584800F097FF98
:1012BC0000220821554800F092FF002210215348CB
:1012CC0000F08DFF00222021504800F088FF002202
:1012DC0040214E4800F083FF012202214B4800F0D0
:1012EC007EFF8FE000220121484800F078FF0022A9
:1012FC000221464800F073FF00220421434800F00D
:10130C006EFF01220821414800F069FF01221021E3
:10131C003E4800F064FF012220213C4800F05FFFB2
:10132C0001224021394800F05AFF6BE000220121D4
:10133C00364800F054FF00220221344800F04FFFE1
:10134C0000220421314800F04AFF002208212F48D6
:10135C0000F045FF002210212C4800F040FF002235
:10136C0020212A4800F03BFF00224021274800F0B2
:10137C0036FF47E000220121244800F030FF002214
:10138C000221224800F02BFF002204211F4800F00C
:10139C0026FF002208211D4800F021FF00222021F9
:1013AC001A4800F01CFF00224021184800F017FFDB
:1013BC0001221021154800F012FF23E00122012127
:1013CC00124800F00CFF01220221104800F007FF28
:1013DC00012204210D4800F002FF012208210B48D4
:1013EC0000F0FDFE01221021084800F0F8FE012259
:1013FC002021064800F0F3FE01224021034800F0B2
:10140C00EEFE00BF00BF0837BD4680BD000C01409A
:10141C0080B500AF01220121114800F0E0FE01224D
:10142C0002210F4800F0DBFE012204210C4800F0E1
:10143C00D6FE012208210A4800F0D1FE012210211B
:10144C00074800F0CCFE01222021054800F0C7FE21
:10145C0001224021024800F0C2FE00BF80BD00BF47
:10146C00000C014080B582B000AF78607B68032B24
:10147C0000F2848001A252F823F000BF99140008F6
:10148C00D5140008111500084D15000800224FF462
:10149C0080713D4800F0A3FE01224FF400713A48E0
:1014AC0000F09DFE01224FF48061374800F097FE5A
:1014BC0001224FF40061344800F091FE334B1B685D
:1014CC001846FFF7F3FD5AE001224FF480712E48C5
:1014DC0000F085FE00224FF400712B4800F07FFED7
:1014EC0001224FF48061284800F079FE01224FF46C
:1014FC000061254800F073FE244B5B681846FFF72B
:10150C00D5FD3CE001224FF480711F4800F067FECE
:10151C0001224FF400711C4800F061FE00224FF4D0
:10152C008061194800F05BFE01224FF400611648FF
:10153C0000F055FE154B9B681846FFF7B7FD1EE0F3
:10154C0001224FF48071104800F049FE01224FF443
:10155C0000710D4800F043FE01224FF480610A48EF
:10156C0000F03DFE00224FF40061074800F037FE0A
:10157C00064BDB681846FFF799FD00E000BF00BF83
:10158C000837BD4680BD00BF00080140B8000020F0
:10159C0080B483B000AF786039603B68002B05DC09
:1015AC00074A7B68002142F8231004E004497B6859
:1015BC003A6841F8232000BF0C37BD4680BC704709
:1015CC00B800002080B500AF00F006FB00F00DF86D
:1015DC0000F092F800F044F800F0F0F8FEF782FE0C
:1015EC00FFF712FCFFF790F9F8E780B590B000AF69
:1015FC0007F1180328220021184601F0DBFD3B1DE2
:10160C0000221A605A609A60DA601A610223BB6188
:10161C000123BB621023FB6200237B6307F11803D9
:10162C00184600F00DFE0346002B01D000F0FAF82E
:10163C000F237B600023BB600023FB6000233B6116
:10164C0000237B613B1D0021184601F07BF803460B
:10165C00002B01D000F0E6F800BF4037BD4680BD3E
:10166C0080B586B000AF07F1080300221A605A60FB
:10167C009A60DA603B4600221A605A601D4B4FF0AC
:10168C0080421A601B4B41F63F725A60194B002284
:10169C009A60184B0922DA60164B00221A61154B1E
:1016AC0000229A61134801F0A9F90346002B01D0DE
:1016BC0000F0B8F84FF48053BB6007F108031946EB
:1016CC000C4801F027FB0346002B01D000F0AAF8D0
:1016DC0000233B6000237B603B461946054801F024
:1016EC00FFFC0346002B01D000F09CF800BF18371C
:1016FC00BD4680BDC800002080B586B000AF07F1A4
:10170C00080300221A605A609A60DA60284B9B69C1
:10171C00274A43F004039361254B9B6903F00403B0
:10172C007B607B68224B9B69214A43F008039361E1
:10173C001F4B9B6903F008033B603B68002240F69B
:10174C00BF711C4800F04BFD00227F211A4800F0AD
:10175C0046FD40F6BF73BB600123FB6000233B6179
:10176C0002237B6107F108031946124800F0A4FB21
:10177C007F23BB600123FB6000233B6102237B6161
:10178C0007F1080319460C4800F096FB4FF4607300
:10179C00BB600023FB6001233B6107F10803194682
:1017AC00054800F089FB00BF1837BD4680BD00BF5F
:1017BC000010024000080140000C014080B500AF51
:1017CC000F4801F06BF9FFF723FE01224FF6FF7172
:1017DC000C4800F004FD0C4B01221A604FF4FA7116
:1017EC00032000F025F84FF47A71042000F020F863
:1017FC004FF47A71052000F01BF800BF80BD00BFCC
:10180C00C800002000080140B000002080B582B064
:10181C0000AF786000F040F8FEF7C6FC00BF083758
:10182C00BD4680BD80B400AF72B600BFFEE70000BD
:10183C0080B483B000AF786039603B68094A82FBA2
:10184C0003129210DB17D21A07497B6841F8232048
:10185C00064A7B68002142F8231000BF0C37BD46B6
:10186C0080BC704767666666380100201001002056
:10187C0080B483B000AF7860064A7B6852F823309E
:10188C00012B01D1012300E0002318460C37BD4683
:10189C0080BC70471001002080B483B000AF0023DF
:1018AC007B601CE0124A7B6852F82330002B13DD5E
:1018BC000F4A7B6852F823305A1E0D497B6841F859
:1018CC0023200B4A7B6852F82330002B04DC094A96
:1018DC007B68012142F823107B6801337B607B68B5
:1018EC00092BDFDD00BF00BF0C37BD4680BC704745
:1018FC00380100201001002080B485B000AF154BDA
:10190C009B69144A43F001039361124B9B6903F0EA
:10191C000103BB60BB680F4BDB690E4A43F080537D
:10192C00D3610C4BDB6903F080537B607B680A4B03
:10193C005B68FB60FB6823F0E063FB60FB6843F0D3
:10194C008063FB60044AFB68536000BF1437BD46DC
:10195C0080BC7047001002400000014080B584B08C
:10196C0000AF78607B681B68B3F1804F13D10C4BD0
:10197C00DB690B4A43F00103D361094BDB6903F0CC
:10198C000103FB60FB68002200211C2000F05DFAC3
:10199C001C2000F076FA00BF1037BD4680BD00BF9A
:1019AC000010024080B400AFFEE780B400AFFEE749
:1019BC0080B400AFFEE780B400AFFEE780B400AFA8
:1019CC00FEE780B400AF00BFBD4680BC704780B45A
:1019DC0000AF00BFBD4680BC704780B400AF00BFF5
:1019EC00BD4680BC704780B500AF00F03BF900BF2E
:1019FC0080BD000080B500AF024801F09BF800BF2D
:101A0C0080BD00BFC800002080B400AF00BFBD4641
:101A1C0080BC704780B584B000AFF860B9607A6064
:101A2C00FB68DBB21A4601210A4800F0D8FBBB6800
:101A3C00DBB21A460221074800F0D1FB7B68DBB20F
:101A4C001A460421034800F0CAFB00BF1037BD46FC
:101A5C0080BD00BF0008014080B584B000AFF860C5
:101A6C00B9607A60FB68DBB21A4608210A4800F0BC
:101A7C00B6FBBB68DBB21A461021074800F0AFFB7F
:101A8C007B68DBB21A462021034800F0A8FB00BF9C
:101A9C001037BD4680BD00BF0008014080B582B044
:101AAC0000AF78607B68002B0DD07B68012B15D1C3
:101ABC00002201210C4800F092FB002208210A4868
:101ACC0000F08DFB0BE001220121074800F087FBA1
:101ADC0001220821044800F082FB00E000BF00BF97
:101AEC000837BD4680BD00BF0008014080B582B0FC
:101AFC0000AF78607B68002B0DD07B68012B15D173
:101B0C00002202210C4800F06AFB002210210A4836
:101B1C0000F065FB0BE001220221074800F05FFB9F
:101B2C0001221021044800F05AFB00E000BF00BF66
:101B3C000837BD4680BD00BF0008014080B582B0AB
:101B4C0000AF78607B68002B0DD07B68012B15D122
:101B5C00002204210C4800F042FB002220210A48FC
:101B6C0000F03DFB0BE001220421074800F037FB9D
:101B7C0001222021044800F032FB00E000BF00BF2E
:101B8C000837BD4680BD00BF00080140FFF73CFF91
:101B9C000B480C490C4A002302E0D458C4500433BF
:101BAC00C4188C42F9D3094A094C002301E0136094
:101BBC000432A242FBD301F005FBFFF703FD704793
:101BCC0000000020340000205C32000834000020AB
:101BDC0064010020FEE7000080B500AF084B1B68D5
:101BEC00074A43F010031360032000F023F90F2081
:101BFC0000F008F8FFF780FE0023184680BD00BFF8
:101C0C000020024080B582B000AF7860124B1A6899
:101C1C00124B1B7819464FF47A73B3FBF1F3B2FBFA
:101C2C00F3F3184600F03BF90346002B01D00123D7
:101C3C000EE07B680F2B0AD8002279684FF0FF303A
:101C4C0000F003F9064A7B681360002300E00123CF
:101C5C0018460837BD4680BD280000203000002003
:101C6C002C00002080B400AF054B1B781A46054BA6
:101C7C001B681344034A136000BFBD4680BC704709
:101C8C00300000206001002080B400AF024B1B68C4
:101C9C001846BD4680BC70476001002080B485B0FA
:101CAC0000AF78607B6803F00703FB600C4BDB68CC
:101CBC00BB60BA684FF6FF031340BB60FB681A02A7
:101CCC00BB68134343F0BF6343F40033BB60044A67
:101CDC00BB68D36000BF1437BD4680BC704700BFE3
:101CEC0000ED00E080B400AF044BDB681B0A03F08E
:101CFC0007031846BD4680BC704700BF00ED00E0EE
:101D0C0080B483B000AF0346FB7197F90730002B0A
:101D1C000BDBFB7903F01F02064997F907305B09CF
:101D2C00012000FA02F241F8232000BF0C37BD4617
:101D3C0080BC704700E100E080B483B000AF034684
:101D4C003960FB7197F90730002B0ADB3B68DAB27C
:101D5C000C4997F907301201D2B20B4483F80023D7
:101D6C000AE03B68DAB20849FB7903F00F03043B45
:101D7C001201D2B20B441A7600BF0C37BD4680BCA0
:101D8C00704700BF00E100E000ED00E080B489B0D6
:101D9C0000AFF860B9607A60FB6803F00703FB6181
:101DAC00FB69C3F10703042B28BF0423BB61FB6948
:101DBC000433062B02D9FB69033B00E000237B6153
:101DCC004FF0FF32BB6902FA03F3DA43BB681A40E7
:101DDC007B699A404FF0FF317B6901FA03F3D943D9
:101DEC007B680B40134318462437BD4680BC7047B4
:101DFC0080B582B000AF78607B68013BB3F1807F27
:101E0C0001D301230FE00A4A7B68013B53600F2189
:101E1C004FF0FF30FFF790FF054B00229A60044B08
:101E2C0007221A60002318460837BD4680BD00BF44
:101E3C0010E000E080B582B000AF78607868FFF702
:101E4C002DFF00BF0837BD4680BD80B586B000AF02
:101E5C000346B9607A60FB7300237B61FFF742FF96
:101E6C0078617A68B9687869FFF790FF024697F94C
:101E7C000F3011461846FFF75FFF00BF1837BD46FD
:101E8C0080BD80B582B000AF0346FB7197F9073077
:101E9C001846FFF735FF00BF0837BD4680BD80B53B
:101EAC0082B000AF78607868FFF7A2FF034618464F
:101EBC000837BD4680BD000080B48BB000AF7860A1
:101ECC00396000237B6200233B6261E101227B6A63
:101EDC0002FA03F3FB613B681B68FA691340BB61B0
:101EEC00BA69FB699A4240F050813B685B68974A3B
:101EFC0093425ED0954A934275D8954A934258D0F6
:101F0C00934A93426FD8934A934252D0914A934248
:101F1C0069D8914A93424CD08F4A934263D88F4AE6
:101F2C00934246D08D4A93425DD8122B2AD8122B5D
:101F3C0059D801A252F823F0BF1F0008991F0008BE
:101F4C00AB1F0008ED1F0008F31F0008F31F00086B
:101F5C00F31F0008F31F0008F31F0008F31F00080D
:101F6C00F31F0008F31F0008F31F0008F31F0008FD
:101F7C00F31F0008F31F0008F31F0008A11F00083F
:101F8C00B51F0008764A934213D02CE03B68DB68FF
:101F9C003B6229E03B68DB6804333B6224E03B682E
:101FAC00DB6808333B621FE03B68DB680C333B6249
:101FBC001AE03B689B68002B02D104233B6213E0C0
:101FCC003B689B68012B05D108233B627B68FA694F
:101FDC001A6109E008233B627B68FA695A6103E0E5
:101FEC0000233B6200E000BFBB69FF2B01D87B687C
:101FFC0001E07B6804337B61BB69FF2B02D87B6AF1
:10200C009B0002E07B6A083B9B003B617B691A6882
:10201C000F213B6901FA03F3DB431A40396A3B6930
:10202C0001FA03F31A437B691A603B685B6803F09F
:10203C008053002B00F0A9804A4B9B69494A43F01E
:10204C0001039361474B9B6903F00103BB60BB68C1
:10205C00454A7B6A9B08023352F82330FB607B6A4B
:10206C0003F003039B000F2202FA03F3DB43FA682D
:10207C001340FB607B683D4A93420DD07B683C4A21
:10208C00934207D07B683B4A934201D1022304E080
:10209C00032302E0012300E000237A6A02F003022A
:1020AC0092009340FA681343FB602F497B6A9B08AC
:1020BC000233FA6841F823203B685B6803F4801311
:1020CC00002B06D02C4B9A682B49BB6913438B60B1
:1020DC0006E0294B9A68BB69DB43274913408B60A8
:1020EC003B685B6803F40013002B06D0224BDA68C4
:1020FC002149BB691343CB6006E01F4BDA68BB690F
:10210C00DB431D491340CB603B685B6803F4003331
:10211C00002B06D0184B5A681749BB6913434B6008
:10212C0006E0154B5A68BB69DB43134913404B60FF
:10213C003B685B6803F48033002B1FD00E4B1A688E
:10214C000D49BB6913430B601FE000BF0000321048
:10215C0000003110000022100000211000001210AD
:10216C000000111000100240000001400008014066
:10217C00000C014000100140000401400B4B1A6898
:10218C00BB69DB43094913400B607B6A01337B62FB
:10219C003B681A687B6A22FA03F3002B7FF496AE35
:1021AC0000BF00BF2C37BD4680BC70470004014007
:1021BC0080B485B000AF78600B467B807B689A68F2
:1021CC007B881340002B02D00123FB7301E000231A
:1021DC00FB73FB7B18461437BD4680BC704780B43C
:1021EC0083B000AF78600B467B8013467B707B78A6
:1021FC00002B03D07A887B681A6103E07B881A0471
:10220C007B681A6100BF0C37BD4680BC704780B438
:10221C0085B000AF78600B467B807B68DB68FB6029
:10222C007A88FB6813401A04FB68D9437B880B40FF
:10223C001A437B681A6100BF1437BD4680BC7047D7
:10224C0080B586B000AF78607B68002B01D101238C
:10225C0072E27B681B6803F00103002B00F087809F
:10226C00924B5B6803F00C03042B0CD08F4B5B6818
:10227C0003F00C03082B12D18C4B5B6803F48033F6
:10228C00B3F5803F0BD1894B1B6803F40033002B53
:10229C006CD07B685B68002B68D101234CE27B68B7
:1022AC005B68B3F5803F06D1804B1B687F4A43F4D3
:1022BC00803313602EE07B685B68002B0CD17B4B6A
:1022CC001B687A4A23F480331360784B1B68774A77
:1022DC0023F4802313601DE07B685B68B3F5A02FAB
:1022EC000CD1724B1B68714A43F4802313606F4B03
:1022FC001B686E4A43F4803313600BE06B4B1B6816
:10230C006A4A23F480331360684B1B68674A23F4D2
:10231C00802313607B685B68002B13D0FFF7B4FC41
:10232C00386108E0FFF7B0FC02463B69D31A642B16
:10233C0001D9032300E25D4B1B6803F40033002B2F
:10234C00F0D014E0FFF7A0FC386108E0FFF79CFC2C
:10235C0002463B69D31A642B01D90323ECE1534B9E
:10236C001B6803F40033002BF0D100E000BF7B6846
:10237C001B6803F00203002B63D04C4B5B6803F02B
:10238C000C03002B0BD0494B5B6803F00C03082BA0
:10239C001CD1464B5B6803F48033002B16D1434BA6
:1023AC001B6803F00203002B05D07B681B69012B13
:1023BC0001D00123C0E13D4B1B6823F0F8027B6880
:1023CC005B69DB00394913430B603AE07B681B699E
:1023DC00002B20D0364B01221A60FFF755FC3861D8
:1023EC0008E0FFF751FC02463B69D31A022B01D9D6
:1023FC000323A1E12D4B1B6803F00203002BF0D04B
:10240C002A4B1B6823F0F8027B685B69DB002749C9
:10241C0013430B6015E0264B00221A60FFF734FCC7
:10242C00386108E0FFF730FC02463B69D31A022BF7
:10243C0001D9032380E11D4B1B6803F00203002B21
:10244C00F0D17B681B6803F00803002B3AD07B6843
:10245C009B69002B19D0174B01221A60FFF714FC53
:10246C00386108E0FFF710FC02463B69D31A022BD7
:10247C0001D9032360E10D4B5B6A03F00203002BCF
:10248C00F0D0012000F09CFA1CE00A4B00221A60EC
:10249C00FFF7FAFB38610FE0FFF7F6FB02463B69EA
:1024AC00D31A022B08D9032346E100BF00100240C7
:1024BC000000424280044242924B5B6A03F00203EA
:1024CC00002BE9D17B681B6803F00403002B00F0A0
:1024DC00A6800023FB758B4BDB6903F08053002B2C
:1024EC000DD1884BDB69874A43F08053D361854B10
:1024FC00DB6903F08053BB60BB680123FB75824B27
:10250C001B6803F48073002B18D17F4B1B687E4A29
:10251C0043F480731360FFF7B7FB386108E0FFF7F3
:10252C00B3FB02463B69D31A642B01D9032303E1A5
:10253C00754B1B6803F48073002BF0D07B68DB6851
:10254C00012B06D16F4B1B6A6E4A43F001031362D9
:10255C002DE07B68DB68002B0CD16A4B1B6A694A47
:10256C0023F001031362674B1B6A664A23F00403D2
:10257C0013621CE07B68DB68052B0CD1614B1B6A7A
:10258C00604A43F0040313625E4B1B6A5D4A43F0DE
:10259C00010313620BE05B4B1B6A5A4A23F00103E5
:1025AC001362584B1B6A574A23F0040313627B686F
:1025BC00DB68002B15D0FFF767FB38610AE0FFF7EB
:1025CC0063FB02463B69D31A41F28832934201D92C
:1025DC000323B1E04B4B1B6A03F00203002BEED03C
:1025EC0014E0FFF751FB38610AE0FFF74DFB0246A0
:1025FC003B69D31A41F28832934201D903239BE001
:10260C00404B1B6A03F00203002BEED1FB7D012B28
:10261C0005D13C4BDB693B4A23F08053D3617B688B
:10262C00DB69002B00F08780364B5B6803F00C03F2
:10263C00082B61D07B68DB69022B46D1334B00221F
:10264C001A60FFF721FB386108E0FFF71DFB02461B
:10265C003B69D31A022B01D903236DE0294B1B686C
:10266C0003F00073002BF0D17B681B6AB3F5803F3D
:10267C0008D1244B5B6823F400327B689B682149AA
:10268C0013434B601F4B5B6823F474127B68196A0D
:10269C007B685B6A0B431B4913434B601B4B01224A
:1026AC001A60FFF7F1FA386108E0FFF7EDFA02461D
:1026BC003B69D31A022B01D903233DE0114B1B6854
:1026CC0003F00073002BF0D035E0104B00221A60A1
:1026DC00FFF7DAFA386108E0FFF7D6FA02463B69F1
:1026EC00D31A022B01D9032326E0064B1B6803F0F7
:1026FC000073002BF0D11EE07B68DB69012B07D146
:10270C00012319E0001002400070004060004242BA
:10271C000B4B5B68FB60FB6803F480327B681B6AC5
:10272C009A4206D1FB6803F470127B685B6A9A428A
:10273C0001D0012300E0002318461837BD4680BDA8
:10274C000010024080B584B000AF786039607B68BF
:10275C00002B01D10123D0E06A4B1B6803F0070367
:10276C003A689A4210D9674B1B6823F007026549F7
:10277C003B6813430B60634B1B6803F007033A6819
:10278C009A4201D00123B8E07B681B6803F0020376
:10279C00002B20D07B681B6803F00403002B05D0B2
:1027AC00594B5B68584A43F4E06353607B681B6881
:1027BC0003F00803002B05D0534B5B68524A43F4DB
:1027CC0060535360504B5B6823F0F0027B689B684E
:1027DC004D4913434B607B681B6803F00103002BCE
:1027EC0040D07B685B68012B07D1474B1B6803F417
:1027FC000033002B15D101237FE07B685B68022B33
:10280C0007D1414B1B6803F00073002B09D1012346
:10281C0073E03D4B1B6803F00203002B01D1012335
:10282C006BE0394B5B6823F003027B685B683649CD
:10283C0013434B60FFF728FAF8600AE0FFF724FA1D
:10284C000246FB68D31A41F28832934201D9032322
:10285C0053E02D4B5B6803F00C027B685B689B00BC
:10286C009A42EBD1274B1B6803F007033A689A4254
:10287C0010D2244B1B6823F0070222493B681343F8
:10288C000B60204B1B6803F007033A689A4201D097
:10289C00012332E07B681B6803F00403002B08D093
:1028AC00194B5B6823F4E0627B68DB6816491343C1
:1028BC004B607B681B6803F00803002B09D0124B9C
:1028CC005B6823F460527B681B69DB000E49134381
:1028DC004B6000F021F802460B4B5B681B0903F0C0
:1028EC000F030A49CB5C22FA03F3094A1360094B24
:1028FC001B681846FFF786F9002318461037BD46AB
:10290C0080BD00BF002002400010024030320008A1
:10291C00280000202C00002080B487B000AF0023DA
:10292C00FB600023BB6000237B6100237B600023E2
:10293C003B611E4B5B68FB60FB6803F00C03042BD4
:10294C0002D0082B03D027E0194B3B6127E0FB6832
:10295C009B0C03F00F03174AD35C7B60FB6803F4FA
:10296C008033002B10D0114B5B685B0C03F0010320
:10297C00114AD35CBB607B680D4A03FB02F2BB6857
:10298C00B2FBF3F37B6104E07B680C4A02FB03F3BC
:10299C007B617B693B6102E0054B3B6100BF3B699E
:1029AC0018461C37BD4680BC704700BF0010024063
:1029BC0000127A00403200085032000800093D0035
:1029CC0080B485B000AF78600A4B1B680A4AA2FB42
:1029DC0003235B0A7A6802FB03F3FB6000BFFB680E
:1029EC005A1EFA60002BF9D100BF00BF1437BD4648
:1029FC0080BC704728000020D34D621080B582B097
:102A0C0000AF78607B68002B01D1012341E07B682B
:102A1C0093F83D30DBB2002B06D17B68002283F8A3
:102A2C003C207868FEF79AFF7B68022283F83D20F1
:102A3C007B681A687B6804331946104600F056FA16
:102A4C007B68012283F846207B68012283F83E20B4
:102A5C007B68012283F83F207B68012283F84020A9
:102A6C007B68012283F841207B68012283F8422095
:102A7C007B68012283F843207B68012283F8442081
:102A8C007B68012283F845207B68012283F83D2076
:102A9C00002318460837BD4680BD000080B485B0C1
:102AAC0000AF78607B6893F83D30DBB2012B01D02E
:102ABC00012335E07B68022283F83D207B681B688C
:102ACC00DA687B681B6842F00102DA607B681B687D
:102ADC00164A934209D07B681B68B3F1804F04D02F
:102AEC007B681B68124A934211D17B681B689B68F8
:102AFC0003F00703FB60FB68062B10D07B681B6898
:102B0C001A687B681B6842F001021A6007E07B6858
:102B1C001B681A687B681B6842F001021A6000236C
:102B2C0018461437BD4680BC704700BF002C0140CE
:102B3C000004004080B584B000AF78607B681B68EF
:102B4C00DB68FB607B681B681B69BB60BB6803F0C0
:102B5C000203002B20D0FB6803F00203002B1BD0D8
:102B6C007B681B686FF002021A617B6801221A777E
:102B7C007B681B689B6903F00303002B03D0786808
:102B8C0000F098F905E0786800F08BF9786800F0AF
:102B9C009AF97B6800221A77BB6803F00403002BB8
:102BAC0020D0FB6803F00403002B1BD07B681B6850
:102BBC006FF004021A617B6802221A777B681B682B
:102BCC009B6903F44073002B03D0786800F072F912
:102BDC0005E0786800F065F9786800F074F97B68B6
:102BEC0000221A77BB6803F00803002B20D0FB6887
:102BFC0003F00803002B1BD07B681B686FF00802E6
:102C0C001A617B6804221A777B681B68DB6903F006
:102C1C000303002B03D0786800F04CF905E07868CA
:102C2C0000F03FF9786800F04EF97B6800221A77C3
:102C3C00BB6803F01003002B20D0FB6803F01003DB
:102C4C00002B1BD07B681B686FF010021A617B682D
:102C5C0008221A777B681B68DB6903F44073002B2E
:102C6C0003D0786800F026F905E0786800F019F9CF
:102C7C00786800F028F97B6800221A77BB6803F0AB
:102C8C000103002B0CD0FB6803F00103002B07D0D1
:102C9C007B681B686FF001021A617868FEF7B6FD5D
:102CAC00BB6803F08003002B0CD0FB6803F080039F
:102CBC00002B07D07B681B686FF080021A61786864
:102CCC0000F06FFABB6803F04003002B0CD0FB68DC
:102CDC0003F04003002B07D07B681B686FF04002A9
:102CEC001A61786800F0F8F8BB6803F02003002B39
:102CFC000CD0FB6803F02003002B07D07B681B680B
:102D0C006FF020021A61786800F042FA00BF1037A9
:102D1C00BD4680BD80B584B000AF786039600023BB
:102D2C00FB737B6893F83C30012B01D10223B4E098
:102D3C007B68012283F83C207B68022283F83D20CB
:102D4C007B681B689B68BB60BB6823F07703BB6028
:102D5C00BB6823F47F43BB607B681B68BA689A60CE
:102D6C003B681B68B3F5005F3ED0B3F5005F00F223
:102D7C008780B3F5805F00F08680B3F5805F7FD8E5
:102D8C00702B1AD0702B7BD8602B50D0602B77D83F
:102D9C00502B3CD0502B73D8402B58D0402B6FD895
:102DAC00302B64D0302B6BD8202B60D0202B67D8E5
:102DBC00002B5CD0102B5AD062E07B6818683B6803
:102DCC0099683B685A683B68DB6800F06AF97B6875
:102DDC001B689B68BB60BB6843F07703BB607B6878
:102DEC001B68BA689A604FE07B6818683B68996802
:102DFC003B685A683B68DB6800F053F97B681B68DA
:102E0C009A687B681B6842F480429A603CE07B685D
:102E1C0018683B6859683B68DB681A4600F0CAF8CA
:102E2C007B681B685021184600F021F92CE07B6868
:102E3C0018683B6859683B68DB681A4600F0E8F88C
:102E4C007B681B686021184600F011F91CE07B6858
:102E5C0018683B6859683B68DB681A4600F0AAF8AA
:102E6C007B681B684021184600F001F90CE07B6878
:102E7C001A683B681B681946104600F0F8F803E026
:102E8C000123FB7300E000BF7B68012283F83D2027
:102E9C007B68002283F83C20FB7B18461037BD462C
:102EAC0080BD80B483B000AF786000BF0C37BD46E6
:102EBC0080BC704780B483B000AF786000BF0C3723
:102ECC00BD4680BC704780B483B000AF786000BF53
:102EDC000C37BD4680BC704780B483B000AF7860BF
:102EEC0000BF0C37BD4680BC7047000080B485B075
:102EFC0000AF786039607B681B68FB607B682B4A8D
:102F0C00934207D07B68B3F1804F03D07B68284A8B
:102F1C00934208D1FB6823F07003FB603B685B684D
:102F2C00FA681343FB607B68204A934207D07B68A6
:102F3C00B3F1804F03D07B681D4A934208D1FB68E4
:102F4C0023F44073FB603B68DB68FA681343FB6057
:102F5C00FB6823F080023B685B691343FB607B6872
:102F6C00FA681A603B689A687B68DA623B681A6890
:102F7C007B689A627B680D4A934203D13B681A695D
:102F8C007B681A637B6801225A617B681B6903F0BA
:102F9C000103002B05D07B681B6923F001027B68C1
:102FAC001A6100BF1437BD4680BC7047002C01402D
:102FBC000004004080B487B000AFF860B9607A605C
:102FCC00FB681B6A7B61FB681B6A23F00102FB68D0
:102FDC001A62FB689B693B613B6923F0F0033B6120
:102FEC007B681B013A6913433B617B6923F00A033D
:102FFC007B617A69BB6813437B61FB683A699A61B0
:10300C00FB687A691A6200BF1C37BD4680BC7047EA
:10301C0080B487B000AFF860B9607A60FB681B6A57
:10302C007B61FB681B6A23F01002FB681A62FB6869
:10303C009B693B613B6923F470433B617B681B03D9
:10304C003A6913433B617B6923F0A0037B61BB6846
:10305C001B017A6913437B61FB683A699A61FB68CF
:10306C007A691A6200BF1C37BD4680BC704780B4B9
:10307C0085B000AF786039607B689B68FB60FB684B
:10308C0023F07003FB603A68FB68134343F00703BB
:10309C00FB607B68FA689A6000BF1437BD4680BC41
:1030AC00704780B487B000AFF860B9607A603B605D
:1030BC00FB689B687B617B6923F47F437B613B6886
:1030CC001A027B681A43BB6813437A6913437B610A
:1030DC00FB687A699A6000BF1C37BD4680BC70479C
:1030EC0080B485B000AF786039607B6893F83C3071
:1030FC00012B01D1022341E07B68012283F83C20A3
:10310C007B68022283F83D207B681B685B68FB6050
:10311C007B681B689B68BB60FB6823F07003FB60DB
:10312C003B681B68FA681343FB607B681B68FA6892
:10313C005A607B681B68144A934209D07B681B68F1
:10314C00B3F1804F04D07B681B68104A93420CD1BA
:10315C00BB6823F08003BB603B685B68BA681343B1
:10316C00BB607B681B68BA689A607B68012283F835
:10317C003D207B68002283F83C200023184614373E
:10318C00BD4680BC704700BF002C014000040040CD
:10319C0080B483B000AF786000BF0C37BD4680BCF4
:1031AC00704780B483B000AF786000BF0C37BD4669
:1031BC0080BC704703460244934200D1704703F829
:1031CC00011BF9E770B500260C4D0D4C641BA410C7
:1031DC00A64209D100F01AF800260A4D0A4C641BCD
:1031EC00A410A64205D170BD55F8043B9847013692
:1031FC00EEE755F8043B98470136F2E754320008E5
:10320C00543200085432000858320008F8B500BF98
:10321C00F8BC08BC9E467047F8B500BFF8BC08BCAB
:04322C009E46704703
:103230000000000000000000010203040607080966
:1032400002030405060708090A0B0C0D0E0F1010E7
:043250000102000077
:04325400310100083C
:043258000D0100085C
:10325C00000C0140000C0140000C014080000001FA
:10326C000002000005000000050000000500000041
:10327C00020000000300000000127A0010000000A1
:04328C00010000003D
:0400000508001B993B
:00000001FF
